{
  "_format": "hh-sol-artifact-1",
  "contractName": "PrivateWallet",
  "sourceName": "contracts/PrivateWallet.sol",
  "abi": [
    {
      "inputs": [
        {
          "internalType": "address",
          "name": "exchangeToken",
          "type": "address"
        },
        {
          "internalType": "address",
          "name": "token",
          "type": "address"
        }
      ],
      "stateMutability": "nonpayable",
      "type": "constructor"
    },
    {
      "anonymous": false,
      "inputs": [
        {
          "indexed": true,
          "internalType": "address",
          "name": "buyer",
          "type": "address"
        },
        {
          "indexed": false,
          "internalType": "uint256",
          "name": "amount",
          "type": "uint256"
        }
      ],
      "name": "Buy",
      "type": "event"
    },
    {
      "anonymous": false,
      "inputs": [
        {
          "indexed": true,
          "internalType": "address",
          "name": "buyer",
          "type": "address"
        },
        {
          "indexed": false,
          "internalType": "uint256",
          "name": "amount",
          "type": "uint256"
        }
      ],
      "name": "ClaimWDA",
      "type": "event"
    },
    {
      "anonymous": false,
      "inputs": [
        {
          "indexed": true,
          "internalType": "address",
          "name": "previousOwner",
          "type": "address"
        },
        {
          "indexed": true,
          "internalType": "address",
          "name": "newOwner",
          "type": "address"
        }
      ],
      "name": "OwnershipTransferred",
      "type": "event"
    },
    {
      "anonymous": false,
      "inputs": [
        {
          "indexed": false,
          "internalType": "bool",
          "name": "soldout",
          "type": "bool"
        }
      ],
      "name": "SoldOut",
      "type": "event"
    },
    {
      "inputs": [],
      "name": "_exchangeToken",
      "outputs": [
        {
          "internalType": "address",
          "name": "",
          "type": "address"
        }
      ],
      "stateMutability": "view",
      "type": "function"
    },
    {
      "inputs": [],
      "name": "_token",
      "outputs": [
        {
          "internalType": "address",
          "name": "",
          "type": "address"
        }
      ],
      "stateMutability": "view",
      "type": "function"
    },
    {
      "inputs": [
        {
          "internalType": "uint256",
          "name": "amount",
          "type": "uint256"
        }
      ],
      "name": "buy",
      "outputs": [],
      "stateMutability": "nonpayable",
      "type": "function"
    },
    {
      "inputs": [],
      "name": "cap",
      "outputs": [
        {
          "internalType": "uint256",
          "name": "",
          "type": "uint256"
        }
      ],
      "stateMutability": "view",
      "type": "function"
    },
    {
      "inputs": [],
      "name": "claimTGE",
      "outputs": [],
      "stateMutability": "nonpayable",
      "type": "function"
    },
    {
      "inputs": [],
      "name": "cost",
      "outputs": [
        {
          "internalType": "uint256",
          "name": "",
          "type": "uint256"
        }
      ],
      "stateMutability": "view",
      "type": "function"
    },
    {
      "inputs": [],
      "name": "endAt",
      "outputs": [
        {
          "internalType": "uint256",
          "name": "",
          "type": "uint256"
        }
      ],
      "stateMutability": "view",
      "type": "function"
    },
    {
      "inputs": [],
      "name": "getBalanceOfPrivate",
      "outputs": [
        {
          "internalType": "uint256",
          "name": "",
          "type": "uint256"
        }
      ],
      "stateMutability": "view",
      "type": "function"
    },
    {
      "inputs": [
        {
          "internalType": "uint256",
          "name": "_min",
          "type": "uint256"
        },
        {
          "internalType": "uint256",
          "name": "_max",
          "type": "uint256"
        },
        {
          "internalType": "uint256",
          "name": "_startAt",
          "type": "uint256"
        },
        {
          "internalType": "uint256",
          "name": "_endAt",
          "type": "uint256"
        },
        {
          "internalType": "uint256",
          "name": "_cap",
          "type": "uint256"
        },
        {
          "internalType": "uint256",
          "name": "_cost",
          "type": "uint256"
        },
        {
          "internalType": "uint256",
          "name": "_tge",
          "type": "uint256"
        }
      ],
      "name": "initialize",
      "outputs": [],
      "stateMutability": "nonpayable",
      "type": "function"
    },
    {
      "inputs": [
        {
          "internalType": "address",
          "name": "user",
          "type": "address"
        }
      ],
      "name": "isWhiteList",
      "outputs": [
        {
          "internalType": "bool",
          "name": "",
          "type": "bool"
        }
      ],
      "stateMutability": "view",
      "type": "function"
    },
    {
      "inputs": [],
      "name": "max",
      "outputs": [
        {
          "internalType": "uint256",
          "name": "",
          "type": "uint256"
        }
      ],
      "stateMutability": "view",
      "type": "function"
    },
    {
      "inputs": [],
      "name": "min",
      "outputs": [
        {
          "internalType": "uint256",
          "name": "",
          "type": "uint256"
        }
      ],
      "stateMutability": "view",
      "type": "function"
    },
    {
      "inputs": [],
      "name": "owner",
      "outputs": [
        {
          "internalType": "address",
          "name": "",
          "type": "address"
        }
      ],
      "stateMutability": "view",
      "type": "function"
    },
    {
      "inputs": [],
      "name": "renounceOwnership",
      "outputs": [],
      "stateMutability": "nonpayable",
      "type": "function"
    },
    {
      "inputs": [
        {
          "internalType": "uint256",
          "name": "_cap",
          "type": "uint256"
        }
      ],
      "name": "setCap",
      "outputs": [],
      "stateMutability": "nonpayable",
      "type": "function"
    },
    {
      "inputs": [
        {
          "internalType": "uint256",
          "name": "_cost",
          "type": "uint256"
        }
      ],
      "name": "setCost",
      "outputs": [],
      "stateMutability": "nonpayable",
      "type": "function"
    },
    {
      "inputs": [
        {
          "internalType": "uint256",
          "name": "_max",
          "type": "uint256"
        }
      ],
      "name": "setMax",
      "outputs": [],
      "stateMutability": "nonpayable",
      "type": "function"
    },
    {
      "inputs": [
        {
          "internalType": "uint256",
          "name": "_min",
          "type": "uint256"
        }
      ],
      "name": "setMin",
      "outputs": [],
      "stateMutability": "nonpayable",
      "type": "function"
    },
    {
      "inputs": [
        {
          "internalType": "uint256",
          "name": "_tge",
          "type": "uint256"
        }
      ],
      "name": "setTge",
      "outputs": [],
      "stateMutability": "nonpayable",
      "type": "function"
    },
    {
      "inputs": [
        {
          "internalType": "uint256",
          "name": "_tgeStart",
          "type": "uint256"
        }
      ],
      "name": "setTgeStart",
      "outputs": [],
      "stateMutability": "nonpayable",
      "type": "function"
    },
    {
      "inputs": [
        {
          "internalType": "address[]",
          "name": "_users",
          "type": "address[]"
        }
      ],
      "name": "setWhiteList",
      "outputs": [],
      "stateMutability": "nonpayable",
      "type": "function"
    },
    {
      "inputs": [],
      "name": "soldOut",
      "outputs": [
        {
          "internalType": "bool",
          "name": "",
          "type": "bool"
        }
      ],
      "stateMutability": "view",
      "type": "function"
    },
    {
      "inputs": [],
      "name": "startAt",
      "outputs": [
        {
          "internalType": "uint256",
          "name": "",
          "type": "uint256"
        }
      ],
      "stateMutability": "view",
      "type": "function"
    },
    {
      "inputs": [],
      "name": "tge",
      "outputs": [
        {
          "internalType": "uint256",
          "name": "",
          "type": "uint256"
        }
      ],
      "stateMutability": "view",
      "type": "function"
    },
    {
      "inputs": [],
      "name": "tgeStart",
      "outputs": [
        {
          "internalType": "uint256",
          "name": "",
          "type": "uint256"
        }
      ],
      "stateMutability": "view",
      "type": "function"
    },
    {
      "inputs": [],
      "name": "totalBusdRaised",
      "outputs": [
        {
          "internalType": "uint256",
          "name": "",
          "type": "uint256"
        }
      ],
      "stateMutability": "view",
      "type": "function"
    },
    {
      "inputs": [],
      "name": "totalTokensSold",
      "outputs": [
        {
          "internalType": "uint256",
          "name": "",
          "type": "uint256"
        }
      ],
      "stateMutability": "view",
      "type": "function"
    },
    {
      "inputs": [
        {
          "internalType": "address",
          "name": "newOwner",
          "type": "address"
        }
      ],
      "name": "transferOwnership",
      "outputs": [],
      "stateMutability": "nonpayable",
      "type": "function"
    },
    {
      "inputs": [
        {
          "internalType": "address",
          "name": "",
          "type": "address"
        }
      ],
      "name": "users",
      "outputs": [
        {
          "internalType": "uint256",
          "name": "balance",
          "type": "uint256"
        },
        {
          "internalType": "bool",
          "name": "isClaimTGE",
          "type": "bool"
        }
      ],
      "stateMutability": "view",
      "type": "function"
    },
    {
      "inputs": [
        {
          "internalType": "uint256",
          "name": "",
          "type": "uint256"
        }
      ],
      "name": "whiteList",
      "outputs": [
        {
          "internalType": "address",
          "name": "",
          "type": "address"
        }
      ],
      "stateMutability": "view",
      "type": "function"
    },
    {
      "inputs": [],
      "name": "withDrawBusd",
      "outputs": [],
      "stateMutability": "nonpayable",
      "type": "function"
    }
  ],
  "bytecode": "0x60806040523480156200001157600080fd5b506040516200255c3803806200255c83398181016040528101906200003791906200021e565b620000576200004b620000e860201b60201c565b620000f060201b60201c565b6001808190555081600c60016101000a81548173ffffffffffffffffffffffffffffffffffffffff021916908373ffffffffffffffffffffffffffffffffffffffff16021790555080600d60006101000a81548173ffffffffffffffffffffffffffffffffffffffff021916908373ffffffffffffffffffffffffffffffffffffffff160217905550505062000265565b600033905090565b60008060009054906101000a900473ffffffffffffffffffffffffffffffffffffffff169050816000806101000a81548173ffffffffffffffffffffffffffffffffffffffff021916908373ffffffffffffffffffffffffffffffffffffffff1602179055508173ffffffffffffffffffffffffffffffffffffffff168173ffffffffffffffffffffffffffffffffffffffff167f8be0079c531659141344cd1fd0a4f28419497f9722a3daafe3b4186f6b6457e060405160405180910390a35050565b600080fd5b600073ffffffffffffffffffffffffffffffffffffffff82169050919050565b6000620001e682620001b9565b9050919050565b620001f881620001d9565b81146200020457600080fd5b50565b6000815190506200021881620001ed565b92915050565b60008060408385031215620002385762000237620001b4565b5b6000620002488582860162000207565b92505060206200025b8582860162000207565b9150509250929050565b6122e780620002756000396000f3fe608060405234801561001057600080fd5b50600436106101e55760003560e01c80637cc3ae8c1161010f578063d96a094a116100a2578063f2fde38b11610071578063f2fde38b146104eb578063f76525b514610507578063f889794514610525578063f99031a714610543576101e5565b8063d96a094a14610477578063e0454aa614610493578063e3897081146104af578063ecd0c0c3146104cd576101e5565b8063a7497fa5116100de578063a7497fa5146103ee578063a87430ba1461040c578063b6610ace1461043d578063c744656514610459576101e5565b80637cc3ae8c1461038a578063893da6c9146103a85780638da5cb5b146103c65780639b8c1fed146103e4576101e5565b806349549846116101875780636baa21ce116101565780636baa21ce1461032a578063715018a6146103465780637729be3514610350578063775b9c131461036e576101e5565b806349549846146102b45780635c475d42146102be57806363b20117146102ee5780636ac5db191461030c576101e5565b8063355274ea116101c3578063355274ea1461024257806344a0d68a1461026057806345dc3dd81461027c57806347786d3714610298576101e5565b8063095d6c2f146101ea57806313faede6146102085780631fe9eabc14610226575b600080fd5b6101f2610573565b6040516101ff9190611571565b60405180910390f35b61021061058a565b60405161021d9190611571565b60405180910390f35b610240600480360381019061023b91906115c2565b610590565b005b61024a6105a2565b6040516102579190611571565b60405180910390f35b61027a600480360381019061027591906115c2565b6105a8565b005b610296600480360381019061029191906115c2565b6105ba565b005b6102b260048036038101906102ad91906115c2565b6105cc565b005b6102bc610623565b005b6102d860048036038101906102d391906115c2565b6107b4565b6040516102e59190611630565b60405180910390f35b6102f66107f3565b6040516103039190611571565b60405180910390f35b6103146107f9565b6040516103219190611571565b60405180910390f35b610344600480360381019061033f91906115c2565b6107ff565b005b61034e610811565b005b610358610825565b6040516103659190611571565b60405180910390f35b610388600480360381019061038391906116b0565b61082b565b005b610392610857565b60405161039f9190611571565b60405180910390f35b6103b061085d565b6040516103bd9190611718565b60405180910390f35b6103ce610870565b6040516103db9190611630565b60405180910390f35b6103ec610899565b005b6103f66109e7565b6040516104039190611571565b60405180910390f35b6104266004803603810190610421919061175f565b6109ed565b60405161043492919061178c565b60405180910390f35b610457600480360381019061045291906117b5565b610a1e565b005b610461610ae7565b60405161046e9190611571565b60405180910390f35b610491600480360381019061048c91906115c2565b610aed565b005b6104ad60048036038101906104a891906115c2565b610ed8565b005b6104b7610f3b565b6040516104c49190611630565b60405180910390f35b6104d5610f61565b6040516104e29190611630565b60405180910390f35b6105056004803603810190610500919061175f565b610f87565b005b61050f61100a565b60405161051c9190611571565b60405180910390f35b61052d611010565b60405161053a9190611571565b60405180910390f35b61055d6004803603810190610558919061175f565b611016565b60405161056a9190611718565b60405180910390f35b60006006546002546105859190611886565b905090565b60035481565b6105986110c4565b8060058190555050565b60025481565b6105b06110c4565b8060038190555050565b6105c26110c4565b8060048190555050565b6105d46110c4565b600254811015610619576040517f08c379a00000000000000000000000000000000000000000000000000000000081526004016106109061193d565b60405180910390fd5b8060028190555050565b61062b6110c4565b6000600c60019054906101000a900473ffffffffffffffffffffffffffffffffffffffff1673ffffffffffffffffffffffffffffffffffffffff166370a08231306040518263ffffffff1660e01b81526004016106889190611630565b602060405180830381865afa1580156106a5573d6000803e3d6000fd5b505050506040513d601f19601f820116820180604052508101906106c99190611972565b9050600c60019054906101000a900473ffffffffffffffffffffffffffffffffffffffff1673ffffffffffffffffffffffffffffffffffffffff1663a9059cbb610711610870565b836040518363ffffffff1660e01b815260040161072f92919061199f565b6020604051808303816000875af115801561074e573d6000803e3d6000fd5b505050506040513d601f19601f8201168201806040525081019061077291906119f4565b6107b1576040517f08c379a00000000000000000000000000000000000000000000000000000000081526004016107a890611a6d565b60405180910390fd5b50565b600e81815481106107c457600080fd5b906000526020600020016000915054906101000a900473ffffffffffffffffffffffffffffffffffffffff1681565b60065481565b60055481565b6108076110c4565b80600b8190555050565b6108196110c4565b6108236000611142565b565b60075481565b6108336110c4565b600e6000610841919061147a565b8181600e919061085292919061149b565b505050565b60095481565b600c60009054906101000a900460ff1681565b60008060009054906101000a900473ffffffffffffffffffffffffffffffffffffffff16905090565b6000600a541180156108ad5750600a544210155b6108ec576040517f08c379a00000000000000000000000000000000000000000000000000000000081526004016108e390611ad9565b60405180910390fd5b6108f4611206565b6000600f60003373ffffffffffffffffffffffffffffffffffffffff1673ffffffffffffffffffffffffffffffffffffffff16815260200190815260200160002090508060010160009054906101000a900460ff1615610989576040517f08c379a000000000000000000000000000000000000000000000000000000000815260040161098090611b45565b60405180910390fd5b60006064600b54836000015461099f9190611b65565b6109a99190611bd6565b90506109b481611255565b6000826000018190555060018260010160006101000a81548160ff02191690831515021790555050506109e5611469565b565b600b5481565b600f6020528060005260406000206000915090508060000154908060010160009054906101000a900460ff16905082565b610a266110c4565b85871115610a69576040517f08c379a0000000000000000000000000000000000000000000000000000000008152600401610a6090611c53565b60405180910390fd5b8360085410610aad576040517f08c379a0000000000000000000000000000000000000000000000000000000008152600401610aa490611ce5565b60405180910390fd5b82600281905550866004819055508560058190555084600881905550836009819055508160038190555080600b8190555050505050505050565b60085481565b6008544210158015610b0157506009544211155b610b40576040517f08c379a0000000000000000000000000000000000000000000000000000000008152600401610b3790611d51565b60405180910390fd5b610b48611206565b600060055411610b8d576040517f08c379a0000000000000000000000000000000000000000000000000000000008152600401610b8490611dbd565b60405180910390fd5b6004548110158015610ba157506005548111155b610be0576040517f08c379a0000000000000000000000000000000000000000000000000000000008152600401610bd790611e29565b60405180910390fd5b60025481600654610bf19190611e49565b1115610c32576040517f08c379a0000000000000000000000000000000000000000000000000000000008152600401610c2990611ec9565b60405180910390fd5b610c3b33611016565b610c7a576040517f08c379a0000000000000000000000000000000000000000000000000000000008152600401610c7190611f35565b60405180910390fd5b6000600f60003373ffffffffffffffffffffffffffffffffffffffff1673ffffffffffffffffffffffffffffffffffffffff168152602001908152602001600020905081816000016000828254610cd19190611e49565b9250508190555060025460065403610d45576001600c60006101000a81548160ff0219169083151502179055507f0a3cfaceb3e57ff8026ea1ea844ce08ca4b74964e184e542ea2ab22605e34f62600c60009054906101000a900460ff16604051610d3c9190611718565b60405180910390a15b6000600354670de0b6b3a764000084610d5e9190611b65565b610d689190611bd6565b9050600c60019054906101000a900473ffffffffffffffffffffffffffffffffffffffff1673ffffffffffffffffffffffffffffffffffffffff166323b872dd3330846040518463ffffffff1660e01b8152600401610dc993929190611f55565b6020604051808303816000875af1158015610de8573d6000803e3d6000fd5b505050506040513d601f19601f82011682018060405250810190610e0c91906119f4565b610e4b576040517f08c379a0000000000000000000000000000000000000000000000000000000008152600401610e4290611fd8565b60405180910390fd5b8260066000828254610e5d9190611e49565b925050819055508060076000828254610e769190611e49565b925050819055503373ffffffffffffffffffffffffffffffffffffffff167fe3d4187f6ca4248660cc0ac8b8056515bac4a8132be2eca31d6d0cc170722a7e84604051610ec39190611571565b60405180910390a25050610ed5611469565b50565b610ee06110c4565b428110158015610ef257506009548110155b610f31576040517f08c379a0000000000000000000000000000000000000000000000000000000008152600401610f2890612044565b60405180910390fd5b80600a8190555050565b600c60019054906101000a900473ffffffffffffffffffffffffffffffffffffffff1681565b600d60009054906101000a900473ffffffffffffffffffffffffffffffffffffffff1681565b610f8f6110c4565b600073ffffffffffffffffffffffffffffffffffffffff168173ffffffffffffffffffffffffffffffffffffffff1603610ffe576040517f08c379a0000000000000000000000000000000000000000000000000000000008152600401610ff5906120d6565b60405180910390fd5b61100781611142565b50565b600a5481565b60045481565b600080600090505b600e805490508110156110b9578273ffffffffffffffffffffffffffffffffffffffff16600e8281548110611056576110556120f6565b5b9060005260206000200160009054906101000a900473ffffffffffffffffffffffffffffffffffffffff1673ffffffffffffffffffffffffffffffffffffffff16036110a65760019150506110bf565b80806110b190612125565b91505061101e565b50600090505b919050565b6110cc611472565b73ffffffffffffffffffffffffffffffffffffffff166110ea610870565b73ffffffffffffffffffffffffffffffffffffffff1614611140576040517f08c379a0000000000000000000000000000000000000000000000000000000008152600401611137906121b9565b60405180910390fd5b565b60008060009054906101000a900473ffffffffffffffffffffffffffffffffffffffff169050816000806101000a81548173ffffffffffffffffffffffffffffffffffffffff021916908373ffffffffffffffffffffffffffffffffffffffff1602179055508173ffffffffffffffffffffffffffffffffffffffff168173ffffffffffffffffffffffffffffffffffffffff167f8be0079c531659141344cd1fd0a4f28419497f9722a3daafe3b4186f6b6457e060405160405180910390a35050565b60026001540361124b576040517f08c379a000000000000000000000000000000000000000000000000000000000815260040161124290612225565b60405180910390fd5b6002600181905550565b6000600d60009054906101000a900473ffffffffffffffffffffffffffffffffffffffff1673ffffffffffffffffffffffffffffffffffffffff166370a08231306040518263ffffffff1660e01b81526004016112b29190611630565b602060405180830381865afa1580156112cf573d6000803e3d6000fd5b505050506040513d601f19601f820116820180604052508101906112f39190611972565b905081811015611338576040517f08c379a000000000000000000000000000000000000000000000000000000000815260040161132f90612291565b60405180910390fd5b600d60009054906101000a900473ffffffffffffffffffffffffffffffffffffffff1673ffffffffffffffffffffffffffffffffffffffff1663a9059cbb33846040518363ffffffff1660e01b815260040161139592919061199f565b6020604051808303816000875af11580156113b4573d6000803e3d6000fd5b505050506040513d601f19601f820116820180604052508101906113d891906119f4565b611417576040517f08c379a000000000000000000000000000000000000000000000000000000000815260040161140e90611a6d565b60405180910390fd5b3373ffffffffffffffffffffffffffffffffffffffff167fc4f5f666de248767462ece0cae2dd9321323c27827f24a39f78a4a60f915f7758360405161145d9190611571565b60405180910390a25050565b60018081905550565b600033905090565b5080546000825590600052602060002090810190611498919061153b565b50565b82805482825590600052602060002090810192821561152a579160200282015b8281111561152957823573ffffffffffffffffffffffffffffffffffffffff168260006101000a81548173ffffffffffffffffffffffffffffffffffffffff021916908373ffffffffffffffffffffffffffffffffffffffff160217905550916020019190600101906114bb565b5b509050611537919061153b565b5090565b5b8082111561155457600081600090555060010161153c565b5090565b6000819050919050565b61156b81611558565b82525050565b60006020820190506115866000830184611562565b92915050565b600080fd5b600080fd5b61159f81611558565b81146115aa57600080fd5b50565b6000813590506115bc81611596565b92915050565b6000602082840312156115d8576115d761158c565b5b60006115e6848285016115ad565b91505092915050565b600073ffffffffffffffffffffffffffffffffffffffff82169050919050565b600061161a826115ef565b9050919050565b61162a8161160f565b82525050565b60006020820190506116456000830184611621565b92915050565b600080fd5b600080fd5b600080fd5b60008083601f8401126116705761166f61164b565b5b8235905067ffffffffffffffff81111561168d5761168c611650565b5b6020830191508360208202830111156116a9576116a8611655565b5b9250929050565b600080602083850312156116c7576116c661158c565b5b600083013567ffffffffffffffff8111156116e5576116e4611591565b5b6116f18582860161165a565b92509250509250929050565b60008115159050919050565b611712816116fd565b82525050565b600060208201905061172d6000830184611709565b92915050565b61173c8161160f565b811461174757600080fd5b50565b60008135905061175981611733565b92915050565b6000602082840312156117755761177461158c565b5b60006117838482850161174a565b91505092915050565b60006040820190506117a16000830185611562565b6117ae6020830184611709565b9392505050565b600080600080600080600060e0888a0312156117d4576117d361158c565b5b60006117e28a828b016115ad565b97505060206117f38a828b016115ad565b96505060406118048a828b016115ad565b95505060606118158a828b016115ad565b94505060806118268a828b016115ad565b93505060a06118378a828b016115ad565b92505060c06118488a828b016115ad565b91505092959891949750929550565b7f4e487b7100000000000000000000000000000000000000000000000000000000600052601160045260246000fd5b600061189182611558565b915061189c83611558565b92508282039050818111156118b4576118b3611857565b5b92915050565b600082825260208201905092915050565b7f505249564154453a20636170206861766520746f20677265617465722074686160008201527f6e206f7220657175616c20746f206f6c64206361700000000000000000000000602082015250565b60006119276035836118ba565b9150611932826118cb565b604082019050919050565b600060208201905081810360008301526119568161191a565b9050919050565b60008151905061196c81611596565b92915050565b6000602082840312156119885761198761158c565b5b60006119968482850161195d565b91505092915050565b60006040820190506119b46000830185611621565b6119c16020830184611562565b9392505050565b6119d1816116fd565b81146119dc57600080fd5b50565b6000815190506119ee816119c8565b92915050565b600060208284031215611a0a57611a0961158c565b5b6000611a18848285016119df565b91505092915050565b7f5472616e7366657220746f6b656e206661696c65640000000000000000000000600082015250565b6000611a576015836118ba565b9150611a6282611a21565b602082019050919050565b60006020820190508181036000830152611a8681611a4a565b9050919050565b7f505249564154453a206561726c7920666f722074676500000000000000000000600082015250565b6000611ac36016836118ba565b9150611ace82611a8d565b602082019050919050565b60006020820190508181036000830152611af281611ab6565b9050919050565b7f505249564154453a20416c726561647920636c61696d20746765000000000000600082015250565b6000611b2f601a836118ba565b9150611b3a82611af9565b602082019050919050565b60006020820190508181036000830152611b5e81611b22565b9050919050565b6000611b7082611558565b9150611b7b83611558565b9250828202611b8981611558565b91508282048414831517611ba057611b9f611857565b5b5092915050565b7f4e487b7100000000000000000000000000000000000000000000000000000000600052601260045260246000fd5b6000611be182611558565b9150611bec83611558565b925082611bfc57611bfb611ba7565b5b828204905092915050565b7f505249564154453a204d696e206c6f776572207468616e206d61780000000000600082015250565b6000611c3d601b836118ba565b9150611c4882611c07565b602082019050919050565b60006020820190508181036000830152611c6c81611c30565b9050919050565b7f505249564154453a205374617274206973206e6f74206c657373207468616e2060008201527f656e640000000000000000000000000000000000000000000000000000000000602082015250565b6000611ccf6023836118ba565b9150611cda82611c73565b604082019050919050565b60006020820190508181036000830152611cfe81611cc2565b9050919050565b7f505249564154453a204e6f7420696e2074696d65000000000000000000000000600082015250565b6000611d3b6014836118ba565b9150611d4682611d05565b602082019050919050565b60006020820190508181036000830152611d6a81611d2e565b9050919050565b7f505249564154453a204e6f7420696e697469616c000000000000000000000000600082015250565b6000611da76014836118ba565b9150611db282611d71565b602082019050919050565b60006020820190508181036000830152611dd681611d9a565b9050919050565b7f505249564154453a6f7574206f6620626f756e64000000000000000000000000600082015250565b6000611e136014836118ba565b9150611e1e82611ddd565b602082019050919050565b60006020820190508181036000830152611e4281611e06565b9050919050565b6000611e5482611558565b9150611e5f83611558565b9250828201905080821115611e7757611e76611857565b5b92915050565b7f505249564154453a204869676572207468616e20746f74616c00000000000000600082015250565b6000611eb36019836118ba565b9150611ebe82611e7d565b602082019050919050565b60006020820190508181036000830152611ee281611ea6565b9050919050565b7f505249564154453a2041646472657373206e6f742077686974656c6973740000600082015250565b6000611f1f601e836118ba565b9150611f2a82611ee9565b602082019050919050565b60006020820190508181036000830152611f4e81611f12565b9050919050565b6000606082019050611f6a6000830186611621565b611f776020830185611621565b611f846040830184611562565b949350505050565b7f546f6b656e207472616e73666572206661696c65640000000000000000000000600082015250565b6000611fc26015836118ba565b9150611fcd82611f8c565b602082019050919050565b60006020820190508181036000830152611ff181611fb5565b9050919050565b7f505249564154453a2054676520737461727420696e76616c6964000000000000600082015250565b600061202e601a836118ba565b915061203982611ff8565b602082019050919050565b6000602082019050818103600083015261205d81612021565b9050919050565b7f4f776e61626c653a206e6577206f776e657220697320746865207a65726f206160008201527f6464726573730000000000000000000000000000000000000000000000000000602082015250565b60006120c06026836118ba565b91506120cb82612064565b604082019050919050565b600060208201905081810360008301526120ef816120b3565b9050919050565b7f4e487b7100000000000000000000000000000000000000000000000000000000600052603260045260246000fd5b600061213082611558565b91507fffffffffffffffffffffffffffffffffffffffffffffffffffffffffffffffff820361216257612161611857565b5b600182019050919050565b7f4f776e61626c653a2063616c6c6572206973206e6f7420746865206f776e6572600082015250565b60006121a36020836118ba565b91506121ae8261216d565b602082019050919050565b600060208201905081810360008301526121d281612196565b9050919050565b7f5265656e7472616e637947756172643a207265656e7472616e742063616c6c00600082015250565b600061220f601f836118ba565b915061221a826121d9565b602082019050919050565b6000602082019050818103600083015261223e81612202565b9050919050565b7f496e737566666963656e7420746f6b656e000000000000000000000000000000600082015250565b600061227b6011836118ba565b915061228682612245565b602082019050919050565b600060208201905081810360008301526122aa8161226e565b905091905056fea26469706673582212204a079cd029db1ccac489f45a601ebca8755de469495b95a2c78a443fdb36881964736f6c63430008120033",
  "linkReferences": {},
  "deployedLinkReferences": {}
}