{
  "_format": "hh-sol-artifact-1",
  "contractName": "Auction",
  "sourceName": "contracts/Auction.sol",
  "abi": [
    {
      "inputs": [
        {
          "internalType": "contract IERC721",
          "name": "_nft",
          "type": "address"
        },
        {
          "internalType": "contract IERC20",
          "name": "_token",
          "type": "address"
        }
      ],
      "stateMutability": "nonpayable",
      "type": "constructor"
    },
    {
      "anonymous": false,
      "inputs": [
        {
          "indexed": true,
          "internalType": "address",
          "name": "previousOwner",
          "type": "address"
        },
        {
          "indexed": true,
          "internalType": "address",
          "name": "newOwner",
          "type": "address"
        }
      ],
      "name": "OwnershipTransferred",
      "type": "event"
    },
    {
      "inputs": [],
      "name": "AUCTION_SERVICE_FEE_RATE",
      "outputs": [
        {
          "internalType": "uint256",
          "name": "",
          "type": "uint256"
        }
      ],
      "stateMutability": "view",
      "type": "function"
    },
    {
      "inputs": [],
      "name": "MINIUM_BID_RATE",
      "outputs": [
        {
          "internalType": "uint256",
          "name": "",
          "type": "uint256"
        }
      ],
      "stateMutability": "view",
      "type": "function"
    },
    {
      "inputs": [
        {
          "internalType": "uint256",
          "name": "",
          "type": "uint256"
        }
      ],
      "name": "auctions",
      "outputs": [
        {
          "internalType": "address",
          "name": "auctioneer",
          "type": "address"
        },
        {
          "internalType": "uint256",
          "name": "tokenId",
          "type": "uint256"
        },
        {
          "internalType": "uint256",
          "name": "initialPrice",
          "type": "uint256"
        },
        {
          "internalType": "uint256",
          "name": "lastBid",
          "type": "uint256"
        },
        {
          "internalType": "address",
          "name": "lastBidder",
          "type": "address"
        },
        {
          "internalType": "uint256",
          "name": "startTime",
          "type": "uint256"
        },
        {
          "internalType": "uint256",
          "name": "endTime",
          "type": "uint256"
        },
        {
          "internalType": "bool",
          "name": "completed",
          "type": "bool"
        },
        {
          "internalType": "bool",
          "name": "active",
          "type": "bool"
        },
        {
          "internalType": "uint256",
          "name": "auctionId",
          "type": "uint256"
        }
      ],
      "stateMutability": "view",
      "type": "function"
    },
    {
      "inputs": [
        {
          "internalType": "uint256",
          "name": "_auctionId",
          "type": "uint256"
        }
      ],
      "name": "cancelAuction",
      "outputs": [],
      "stateMutability": "nonpayable",
      "type": "function"
    },
    {
      "inputs": [
        {
          "internalType": "uint256",
          "name": "_tokenId",
          "type": "uint256"
        },
        {
          "internalType": "uint256",
          "name": "_initialPrice",
          "type": "uint256"
        },
        {
          "internalType": "uint256",
          "name": "_startTime",
          "type": "uint256"
        },
        {
          "internalType": "uint256",
          "name": "_endTime",
          "type": "uint256"
        }
      ],
      "name": "createAuction",
      "outputs": [],
      "stateMutability": "nonpayable",
      "type": "function"
    },
    {
      "inputs": [
        {
          "internalType": "uint256",
          "name": "_auctionId",
          "type": "uint256"
        }
      ],
      "name": "finishAuction",
      "outputs": [],
      "stateMutability": "nonpayable",
      "type": "function"
    },
    {
      "inputs": [
        {
          "internalType": "uint256",
          "name": "_auctionId",
          "type": "uint256"
        }
      ],
      "name": "getAuction",
      "outputs": [
        {
          "components": [
            {
              "internalType": "address",
              "name": "auctioneer",
              "type": "address"
            },
            {
              "internalType": "uint256",
              "name": "tokenId",
              "type": "uint256"
            },
            {
              "internalType": "uint256",
              "name": "initialPrice",
              "type": "uint256"
            },
            {
              "internalType": "uint256",
              "name": "lastBid",
              "type": "uint256"
            },
            {
              "internalType": "address",
              "name": "lastBidder",
              "type": "address"
            },
            {
              "internalType": "uint256",
              "name": "startTime",
              "type": "uint256"
            },
            {
              "internalType": "uint256",
              "name": "endTime",
              "type": "uint256"
            },
            {
              "internalType": "bool",
              "name": "completed",
              "type": "bool"
            },
            {
              "internalType": "bool",
              "name": "active",
              "type": "bool"
            },
            {
              "internalType": "uint256",
              "name": "auctionId",
              "type": "uint256"
            }
          ],
          "internalType": "struct Auction.AuctionInfo",
          "name": "",
          "type": "tuple"
        }
      ],
      "stateMutability": "view",
      "type": "function"
    },
    {
      "inputs": [
        {
          "internalType": "bool",
          "name": "_active",
          "type": "bool"
        }
      ],
      "name": "getAuctionByStatus",
      "outputs": [
        {
          "components": [
            {
              "internalType": "address",
              "name": "auctioneer",
              "type": "address"
            },
            {
              "internalType": "uint256",
              "name": "tokenId",
              "type": "uint256"
            },
            {
              "internalType": "uint256",
              "name": "initialPrice",
              "type": "uint256"
            },
            {
              "internalType": "uint256",
              "name": "lastBid",
              "type": "uint256"
            },
            {
              "internalType": "address",
              "name": "lastBidder",
              "type": "address"
            },
            {
              "internalType": "uint256",
              "name": "startTime",
              "type": "uint256"
            },
            {
              "internalType": "uint256",
              "name": "endTime",
              "type": "uint256"
            },
            {
              "internalType": "bool",
              "name": "completed",
              "type": "bool"
            },
            {
              "internalType": "bool",
              "name": "active",
              "type": "bool"
            },
            {
              "internalType": "uint256",
              "name": "auctionId",
              "type": "uint256"
            }
          ],
          "internalType": "struct Auction.AuctionInfo[]",
          "name": "",
          "type": "tuple[]"
        }
      ],
      "stateMutability": "view",
      "type": "function"
    },
    {
      "inputs": [
        {
          "internalType": "uint256",
          "name": "_auctionId",
          "type": "uint256"
        },
        {
          "internalType": "uint256",
          "name": "_amountBid",
          "type": "uint256"
        }
      ],
      "name": "joinAuction",
      "outputs": [],
      "stateMutability": "nonpayable",
      "type": "function"
    },
    {
      "inputs": [],
      "name": "owner",
      "outputs": [
        {
          "internalType": "address",
          "name": "",
          "type": "address"
        }
      ],
      "stateMutability": "view",
      "type": "function"
    },
    {
      "inputs": [],
      "name": "renounceOwnership",
      "outputs": [],
      "stateMutability": "nonpayable",
      "type": "function"
    },
    {
      "inputs": [
        {
          "internalType": "address",
          "name": "newOwner",
          "type": "address"
        }
      ],
      "name": "transferOwnership",
      "outputs": [],
      "stateMutability": "nonpayable",
      "type": "function"
    },
    {
      "inputs": [],
      "name": "withdrawErc20",
      "outputs": [],
      "stateMutability": "nonpayable",
      "type": "function"
    }
  ],
  "bytecode": "0x60806040523480156200001157600080fd5b5060405162003b0538038062003b05833981810160405281019062000037919062000270565b620000576200004b620000e160201b60201c565b620000e960201b60201c565b81600160006101000a81548173ffffffffffffffffffffffffffffffffffffffff021916908373ffffffffffffffffffffffffffffffffffffffff16021790555080600260006101000a81548173ffffffffffffffffffffffffffffffffffffffff021916908373ffffffffffffffffffffffffffffffffffffffff1602179055505050620002b7565b600033905090565b60008060009054906101000a900473ffffffffffffffffffffffffffffffffffffffff169050816000806101000a81548173ffffffffffffffffffffffffffffffffffffffff021916908373ffffffffffffffffffffffffffffffffffffffff1602179055508173ffffffffffffffffffffffffffffffffffffffff168173ffffffffffffffffffffffffffffffffffffffff167f8be0079c531659141344cd1fd0a4f28419497f9722a3daafe3b4186f6b6457e060405160405180910390a35050565b600080fd5b600073ffffffffffffffffffffffffffffffffffffffff82169050919050565b6000620001df82620001b2565b9050919050565b6000620001f382620001d2565b9050919050565b6200020581620001e6565b81146200021157600080fd5b50565b6000815190506200022581620001fa565b92915050565b60006200023882620001d2565b9050919050565b6200024a816200022b565b81146200025657600080fd5b50565b6000815190506200026a816200023f565b92915050565b600080604083850312156200028a5762000289620001ad565b5b60006200029a8582860162000214565b9250506020620002ad8582860162000259565b9150509250929050565b61383e80620002c76000396000f3fe608060405234801561001057600080fd5b50600436106100cf5760003560e01c80638da5cb5b1161008c578063c00a6fb711610066578063c00a6fb7146101e3578063cf266ed014610213578063f08e6e761461022f578063f2fde38b1461024b576100cf565b80638da5cb5b1461018b57806396b5a755146101a9578063bd0a079d146101c5576100cf565b8063234c419f146100d45780633e3f2359146100f2578063431f21da146100fc578063571a26a014610118578063715018a61461015157806378bd79351461015b575b600080fd5b6100dc610267565b6040516100e99190612445565b60405180910390f35b6100fa61026c565b005b61011660048036038101906101119190612491565b6103b9565b005b610132600480360381019061012d91906124f8565b6108e7565b6040516101489a99989796959493929190612581565b60405180910390f35b6101596109a5565b005b610175600480360381019061017091906124f8565b6109b9565b6040516101829190612716565b60405180910390f35b610193610b14565b6040516101a09190612732565b60405180910390f35b6101c360048036038101906101be91906124f8565b610b3d565b005b6101cd611052565b6040516101da9190612445565b60405180910390f35b6101fd60048036038101906101f89190612779565b611057565b60405161020a9190612922565b60405180910390f35b61022d600480360381019061022891906124f8565b61128b565b005b61024960048036038101906102449190612944565b6117d4565b005b610265600480360381019061026091906129b0565b611ebe565b005b606e81565b610274611f41565b600260009054906101000a900473ffffffffffffffffffffffffffffffffffffffff1673ffffffffffffffffffffffffffffffffffffffff1663a9059cbb6102ba610b14565b600260009054906101000a900473ffffffffffffffffffffffffffffffffffffffff1673ffffffffffffffffffffffffffffffffffffffff166370a08231306040518263ffffffff1660e01b81526004016103159190612732565b602060405180830381865afa158015610332573d6000803e3d6000fd5b505050506040513d601f19601f8201168201806040525081019061035691906129f2565b6040518363ffffffff1660e01b8152600401610373929190612a1f565b6020604051808303816000875af1158015610392573d6000803e3d6000fd5b505050506040513d601f19601f820116820180604052508101906103b69190612a5d565b50565b428210156103fc576040517f08c379a00000000000000000000000000000000000000000000000000000000081526004016103f390612ae7565b60405180910390fd5b80821061043e576040517f08c379a000000000000000000000000000000000000000000000000000000000815260040161043590612b79565b60405180910390fd5b60008311610481576040517f08c379a000000000000000000000000000000000000000000000000000000000815260040161047890612c0b565b60405180910390fd5b3373ffffffffffffffffffffffffffffffffffffffff16600160009054906101000a900473ffffffffffffffffffffffffffffffffffffffff1673ffffffffffffffffffffffffffffffffffffffff16636352211e866040518263ffffffff1660e01b81526004016104f39190612445565b602060405180830381865afa158015610510573d6000803e3d6000fd5b505050506040513d601f19601f820116820180604052508101906105349190612c40565b73ffffffffffffffffffffffffffffffffffffffff161461058a576040517f08c379a000000000000000000000000000000000000000000000000000000000815260040161058190612cb9565b60405180910390fd5b3073ffffffffffffffffffffffffffffffffffffffff16600160009054906101000a900473ffffffffffffffffffffffffffffffffffffffff1673ffffffffffffffffffffffffffffffffffffffff1663081812fc866040518263ffffffff1660e01b81526004016105fc9190612445565b602060405180830381865afa158015610619573d6000803e3d6000fd5b505050506040513d601f19601f8201168201806040525081019061063d9190612c40565b73ffffffffffffffffffffffffffffffffffffffff1614610693576040517f08c379a000000000000000000000000000000000000000000000000000000000815260040161068a90612d4b565b60405180910390fd5b600160009054906101000a900473ffffffffffffffffffffffffffffffffffffffff1673ffffffffffffffffffffffffffffffffffffffff1663b88d4fde3330876040518463ffffffff1660e01b81526004016106f293929190612da2565b600060405180830381600087803b15801561070c57600080fd5b505af1158015610720573d6000803e3d6000fd5b5050505060006040518061014001604052803373ffffffffffffffffffffffffffffffffffffffff168152602001868152602001858152602001858152602001600073ffffffffffffffffffffffffffffffffffffffff1681526020018481526020018381526020016000151581526020016001151581526020016003805490508152509050600381908060018154018082558091505060019003906000526020600020906009020160009091909190915060008201518160000160006101000a81548173ffffffffffffffffffffffffffffffffffffffff021916908373ffffffffffffffffffffffffffffffffffffffff16021790555060208201518160010155604082015181600201556060820151816003015560808201518160040160006101000a81548173ffffffffffffffffffffffffffffffffffffffff021916908373ffffffffffffffffffffffffffffffffffffffff16021790555060a0820151816005015560c0820151816006015560e08201518160070160006101000a81548160ff0219169083151502179055506101008201518160070160016101000a81548160ff021916908315150217905550610120820151816008015550505050505050565b600381815481106108f757600080fd5b90600052602060002090600902016000915090508060000160009054906101000a900473ffffffffffffffffffffffffffffffffffffffff16908060010154908060020154908060030154908060040160009054906101000a900473ffffffffffffffffffffffffffffffffffffffff16908060050154908060060154908060070160009054906101000a900460ff16908060070160019054906101000a900460ff1690806008015490508a565b6109ad611f41565b6109b76000611fbf565b565b6109c16123a9565b600382815481106109d5576109d4612dec565b5b9060005260206000209060090201604051806101400160405290816000820160009054906101000a900473ffffffffffffffffffffffffffffffffffffffff1673ffffffffffffffffffffffffffffffffffffffff1673ffffffffffffffffffffffffffffffffffffffff1681526020016001820154815260200160028201548152602001600382015481526020016004820160009054906101000a900473ffffffffffffffffffffffffffffffffffffffff1673ffffffffffffffffffffffffffffffffffffffff1673ffffffffffffffffffffffffffffffffffffffff16815260200160058201548152602001600682015481526020016007820160009054906101000a900460ff161515151581526020016007820160019054906101000a900460ff161515151581526020016008820154815250509050919050565b60008060009054906101000a900473ffffffffffffffffffffffffffffffffffffffff16905090565b8060038181548110610b5257610b51612dec565b5b906000526020600020906009020160000160009054906101000a900473ffffffffffffffffffffffffffffffffffffffff1673ffffffffffffffffffffffffffffffffffffffff163373ffffffffffffffffffffffffffffffffffffffff161480610bef5750610bc0610b14565b73ffffffffffffffffffffffffffffffffffffffff163373ffffffffffffffffffffffffffffffffffffffff16145b610c2e576040517f08c379a0000000000000000000000000000000000000000000000000000000008152600401610c2590612e8d565b60405180910390fd5b600060038381548110610c4457610c43612dec565b5b9060005260206000209060090201604051806101400160405290816000820160009054906101000a900473ffffffffffffffffffffffffffffffffffffffff1673ffffffffffffffffffffffffffffffffffffffff1673ffffffffffffffffffffffffffffffffffffffff1681526020016001820154815260200160028201548152602001600382015481526020016004820160009054906101000a900473ffffffffffffffffffffffffffffffffffffffff1673ffffffffffffffffffffffffffffffffffffffff1673ffffffffffffffffffffffffffffffffffffffff16815260200160058201548152602001600682015481526020016007820160009054906101000a900460ff161515151581526020016007820160019054906101000a900460ff161515151581526020016008820154815250509050600015158160e00151151514610dc9576040517f08c379a0000000000000000000000000000000000000000000000000000000008152600401610dc090612ef9565b60405180910390fd5b806101000151610e0e576040517f08c379a0000000000000000000000000000000000000000000000000000000008152600401610e0590612f65565b60405180910390fd5b428160c0015111610e54576040517f08c379a0000000000000000000000000000000000000000000000000000000008152600401610e4b90612fd1565b60405180910390fd5b600160009054906101000a900473ffffffffffffffffffffffffffffffffffffffff1673ffffffffffffffffffffffffffffffffffffffff1663b88d4fde30836000015184602001516040518463ffffffff1660e01b8152600401610ebb93929190612da2565b600060405180830381600087803b158015610ed557600080fd5b505af1158015610ee9573d6000803e3d6000fd5b50505050600073ffffffffffffffffffffffffffffffffffffffff16816080015173ffffffffffffffffffffffffffffffffffffffff1614610fd157600260009054906101000a900473ffffffffffffffffffffffffffffffffffffffff1673ffffffffffffffffffffffffffffffffffffffff166323b872dd30836080015184606001516040518463ffffffff1660e01b8152600401610f8c93929190612ff1565b6020604051808303816000875af1158015610fab573d6000803e3d6000fd5b505050506040513d601f19601f82011682018060405250810190610fcf9190612a5d565b505b600160038481548110610fe757610fe6612dec565b5b906000526020600020906009020160070160006101000a81548160ff02191690831515021790555060006003848154811061102557611024612dec565b5b906000526020600020906009020160070160016101000a81548160ff021916908315150217905550505050565b600581565b6060600060038054905067ffffffffffffffff81111561107a57611079613028565b5b6040519080825280602002602001820160405280156110b357816020015b6110a06123a9565b8152602001906001900390816110985790505b50905060005b60038054905081101561128157831515600382815481106110dd576110dc612dec565b5b906000526020600020906009020160070160019054906101000a900460ff1615150361126e576003818154811061111757611116612dec565b5b9060005260206000209060090201604051806101400160405290816000820160009054906101000a900473ffffffffffffffffffffffffffffffffffffffff1673ffffffffffffffffffffffffffffffffffffffff1673ffffffffffffffffffffffffffffffffffffffff1681526020016001820154815260200160028201548152602001600382015481526020016004820160009054906101000a900473ffffffffffffffffffffffffffffffffffffffff1673ffffffffffffffffffffffffffffffffffffffff1673ffffffffffffffffffffffffffffffffffffffff16815260200160058201548152602001600682015481526020016007820160009054906101000a900460ff161515151581526020016007820160019054906101000a900460ff1615151515815260200160088201548152505082828151811061126257611261612dec565b5b60200260200101819052505b808061127990613086565b9150506110b9565b5080915050919050565b80600381815481106112a05761129f612dec565b5b906000526020600020906009020160000160009054906101000a900473ffffffffffffffffffffffffffffffffffffffff1673ffffffffffffffffffffffffffffffffffffffff163373ffffffffffffffffffffffffffffffffffffffff16148061133d575061130e610b14565b73ffffffffffffffffffffffffffffffffffffffff163373ffffffffffffffffffffffffffffffffffffffff16145b61137c576040517f08c379a000000000000000000000000000000000000000000000000000000000815260040161137390612e8d565b60405180910390fd5b60006003838154811061139257611391612dec565b5b9060005260206000209060090201604051806101400160405290816000820160009054906101000a900473ffffffffffffffffffffffffffffffffffffffff1673ffffffffffffffffffffffffffffffffffffffff1673ffffffffffffffffffffffffffffffffffffffff1681526020016001820154815260200160028201548152602001600382015481526020016004820160009054906101000a900473ffffffffffffffffffffffffffffffffffffffff1673ffffffffffffffffffffffffffffffffffffffff1673ffffffffffffffffffffffffffffffffffffffff16815260200160058201548152602001600682015481526020016007820160009054906101000a900460ff161515151581526020016007820160019054906101000a900460ff161515151581526020016008820154815250509050600015158160e00151151514611517576040517f08c379a000000000000000000000000000000000000000000000000000000000815260040161150e90612ef9565b60405180910390fd5b80610100015161155c576040517f08c379a000000000000000000000000000000000000000000000000000000000815260040161155390612f65565b60405180910390fd5b428160c0015111156115a3576040517f08c379a000000000000000000000000000000000000000000000000000000000815260040161159a9061311a565b60405180910390fd5b600081608001519050600073ffffffffffffffffffffffffffffffffffffffff168173ffffffffffffffffffffffffffffffffffffffff16036115e857816000015190505b600160009054906101000a900473ffffffffffffffffffffffffffffffffffffffff1673ffffffffffffffffffffffffffffffffffffffff1663b88d4fde308385602001516040518463ffffffff1660e01b815260040161164b93929190612da2565b600060405180830381600087803b15801561166557600080fd5b505af1158015611679573d6000803e3d6000fd5b50505050600060646005606461168f919061313a565b846060015161169e919061316e565b6116a891906131df565b9050600260009054906101000a900473ffffffffffffffffffffffffffffffffffffffff1673ffffffffffffffffffffffffffffffffffffffff166323b872dd308560000151846040518463ffffffff1660e01b815260040161170d93929190612ff1565b6020604051808303816000875af115801561172c573d6000803e3d6000fd5b505050506040513d601f19601f820116820180604052508101906117509190612a5d565b5060016003868154811061176757611766612dec565b5b906000526020600020906009020160070160006101000a81548160ff0219169083151502179055506000600386815481106117a5576117a4612dec565b5b906000526020600020906009020160070160016101000a81548160ff0219169083151502179055505050505050565b6000600383815481106117ea576117e9612dec565b5b9060005260206000209060090201604051806101400160405290816000820160009054906101000a900473ffffffffffffffffffffffffffffffffffffffff1673ffffffffffffffffffffffffffffffffffffffff1673ffffffffffffffffffffffffffffffffffffffff1681526020016001820154815260200160028201548152602001600382015481526020016004820160009054906101000a900473ffffffffffffffffffffffffffffffffffffffff1673ffffffffffffffffffffffffffffffffffffffff1673ffffffffffffffffffffffffffffffffffffffff16815260200160058201548152602001600682015481526020016007820160009054906101000a900460ff161515151581526020016007820160019054906101000a900460ff161515151581526020016008820154815250509050428160a00151101561196b576040517f08c379a00000000000000000000000000000000000000000000000000000000081526004016119629061325c565b60405180910390fd5b428160c0015111156119b2576040517f08c379a00000000000000000000000000000000000000000000000000000000081526004016119a9906132c8565b60405180910390fd5b600015158160e001511515146119fd576040517f08c379a00000000000000000000000000000000000000000000000000000000081526004016119f490612ef9565b60405180910390fd5b806101000151611a42576040517f08c379a0000000000000000000000000000000000000000000000000000000008152600401611a3990612f65565b60405180910390fd5b60008073ffffffffffffffffffffffffffffffffffffffff16826080015173ffffffffffffffffffffffffffffffffffffffff1614611a9d576064606e8360600151611a8e919061316e565b611a9891906131df565b611aa3565b81604001515b905080831015611ae8576040517f08c379a0000000000000000000000000000000000000000000000000000000008152600401611adf9061335a565b60405180910390fd5b82600260009054906101000a900473ffffffffffffffffffffffffffffffffffffffff1673ffffffffffffffffffffffffffffffffffffffff166370a08231336040518263ffffffff1660e01b8152600401611b449190612732565b602060405180830381865afa158015611b61573d6000803e3d6000fd5b505050506040513d601f19601f82011682018060405250810190611b8591906129f2565b1015611bc6576040517f08c379a0000000000000000000000000000000000000000000000000000000008152600401611bbd906133c6565b60405180910390fd5b82600260009054906101000a900473ffffffffffffffffffffffffffffffffffffffff1673ffffffffffffffffffffffffffffffffffffffff1663dd62ed3e33306040518363ffffffff1660e01b8152600401611c249291906133e6565b602060405180830381865afa158015611c41573d6000803e3d6000fd5b505050506040513d601f19601f82011682018060405250810190611c6591906129f2565b1015611ca6576040517f08c379a0000000000000000000000000000000000000000000000000000000008152600401611c9d906133c6565b60405180910390fd5b816000015173ffffffffffffffffffffffffffffffffffffffff163373ffffffffffffffffffffffffffffffffffffffff1603611d18576040517f08c379a0000000000000000000000000000000000000000000000000000000008152600401611d0f9061345b565b60405180910390fd5b611d46600260009054906101000a900473ffffffffffffffffffffffffffffffffffffffff16333086612083565b600073ffffffffffffffffffffffffffffffffffffffff16826080015173ffffffffffffffffffffffffffffffffffffffff1614611e2a57600260009054906101000a900473ffffffffffffffffffffffffffffffffffffffff1673ffffffffffffffffffffffffffffffffffffffff166323b872dd30846080015185606001516040518463ffffffff1660e01b8152600401611de593929190612ff1565b6020604051808303816000875af1158015611e04573d6000803e3d6000fd5b505050506040513d601f19601f82011682018060405250810190611e289190612a5d565b505b3360038581548110611e3f57611e3e612dec565b5b906000526020600020906009020160040160006101000a81548173ffffffffffffffffffffffffffffffffffffffff021916908373ffffffffffffffffffffffffffffffffffffffff1602179055508260038581548110611ea357611ea2612dec565b5b90600052602060002090600902016003018190555050505050565b611ec6611f41565b600073ffffffffffffffffffffffffffffffffffffffff168173ffffffffffffffffffffffffffffffffffffffff1603611f35576040517f08c379a0000000000000000000000000000000000000000000000000000000008152600401611f2c906134ed565b60405180910390fd5b611f3e81611fbf565b50565b611f4961210c565b73ffffffffffffffffffffffffffffffffffffffff16611f67610b14565b73ffffffffffffffffffffffffffffffffffffffff1614611fbd576040517f08c379a0000000000000000000000000000000000000000000000000000000008152600401611fb490613559565b60405180910390fd5b565b60008060009054906101000a900473ffffffffffffffffffffffffffffffffffffffff169050816000806101000a81548173ffffffffffffffffffffffffffffffffffffffff021916908373ffffffffffffffffffffffffffffffffffffffff1602179055508173ffffffffffffffffffffffffffffffffffffffff168173ffffffffffffffffffffffffffffffffffffffff167f8be0079c531659141344cd1fd0a4f28419497f9722a3daafe3b4186f6b6457e060405160405180910390a35050565b612106846323b872dd60e01b8585856040516024016120a493929190612ff1565b604051602081830303815290604052907bffffffffffffffffffffffffffffffffffffffffffffffffffffffff19166020820180517bffffffffffffffffffffffffffffffffffffffffffffffffffffffff8381831617835250505050612114565b50505050565b600033905090565b6000612176826040518060400160405280602081526020017f5361666545524332303a206c6f772d6c6576656c2063616c6c206661696c65648152508573ffffffffffffffffffffffffffffffffffffffff166121dc9092919063ffffffff16565b90506000815114806121985750808060200190518101906121979190612a5d565b5b6121d7576040517f08c379a00000000000000000000000000000000000000000000000000000000081526004016121ce906135eb565b60405180910390fd5b505050565b60606121eb84846000856121f4565b90509392505050565b606082471015612239576040517f08c379a00000000000000000000000000000000000000000000000000000000081526004016122309061367d565b60405180910390fd5b6000808673ffffffffffffffffffffffffffffffffffffffff168587604051612262919061370e565b60006040518083038185875af1925050503d806000811461229f576040519150601f19603f3d011682016040523d82523d6000602084013e6122a4565b606091505b50915091506122b5878383876122c1565b92505050949350505050565b6060831561232357600083510361231b576122db85612336565b61231a576040517f08c379a000000000000000000000000000000000000000000000000000000000815260040161231190613771565b60405180910390fd5b5b82905061232e565b61232d8383612359565b5b949350505050565b6000808273ffffffffffffffffffffffffffffffffffffffff163b119050919050565b60008251111561236c5781518083602001fd5b806040517f08c379a00000000000000000000000000000000000000000000000000000000081526004016123a091906137e6565b60405180910390fd5b604051806101400160405280600073ffffffffffffffffffffffffffffffffffffffff168152602001600081526020016000815260200160008152602001600073ffffffffffffffffffffffffffffffffffffffff1681526020016000815260200160008152602001600015158152602001600015158152602001600081525090565b6000819050919050565b61243f8161242c565b82525050565b600060208201905061245a6000830184612436565b92915050565b600080fd5b61246e8161242c565b811461247957600080fd5b50565b60008135905061248b81612465565b92915050565b600080600080608085870312156124ab576124aa612460565b5b60006124b98782880161247c565b94505060206124ca8782880161247c565b93505060406124db8782880161247c565b92505060606124ec8782880161247c565b91505092959194509250565b60006020828403121561250e5761250d612460565b5b600061251c8482850161247c565b91505092915050565b600073ffffffffffffffffffffffffffffffffffffffff82169050919050565b600061255082612525565b9050919050565b61256081612545565b82525050565b60008115159050919050565b61257b81612566565b82525050565b600061014082019050612597600083018d612557565b6125a4602083018c612436565b6125b1604083018b612436565b6125be606083018a612436565b6125cb6080830189612557565b6125d860a0830188612436565b6125e560c0830187612436565b6125f260e0830186612572565b612600610100830185612572565b61260e610120830184612436565b9b9a5050505050505050505050565b61262681612545565b82525050565b6126358161242c565b82525050565b61264481612566565b82525050565b61014082016000820151612661600085018261261d565b506020820151612674602085018261262c565b506040820151612687604085018261262c565b50606082015161269a606085018261262c565b5060808201516126ad608085018261261d565b5060a08201516126c060a085018261262c565b5060c08201516126d360c085018261262c565b5060e08201516126e660e085018261263b565b506101008201516126fb61010085018261263b565b5061012082015161271061012085018261262c565b50505050565b60006101408201905061272c600083018461264a565b92915050565b60006020820190506127476000830184612557565b92915050565b61275681612566565b811461276157600080fd5b50565b6000813590506127738161274d565b92915050565b60006020828403121561278f5761278e612460565b5b600061279d84828501612764565b91505092915050565b600081519050919050565b600082825260208201905092915050565b6000819050602082019050919050565b610140820160008201516127e9600085018261261d565b5060208201516127fc602085018261262c565b50604082015161280f604085018261262c565b506060820151612822606085018261262c565b506080820151612835608085018261261d565b5060a082015161284860a085018261262c565b5060c082015161285b60c085018261262c565b5060e082015161286e60e085018261263b565b5061010082015161288361010085018261263b565b5061012082015161289861012085018261262c565b50505050565b60006128aa83836127d2565b6101408301905092915050565b6000602082019050919050565b60006128cf826127a6565b6128d981856127b1565b93506128e4836127c2565b8060005b838110156129155781516128fc888261289e565b9750612907836128b7565b9250506001810190506128e8565b5085935050505092915050565b6000602082019050818103600083015261293c81846128c4565b905092915050565b6000806040838503121561295b5761295a612460565b5b60006129698582860161247c565b925050602061297a8582860161247c565b9150509250929050565b61298d81612545565b811461299857600080fd5b50565b6000813590506129aa81612984565b92915050565b6000602082840312156129c6576129c5612460565b5b60006129d48482850161299b565b91505092915050565b6000815190506129ec81612465565b92915050565b600060208284031215612a0857612a07612460565b5b6000612a16848285016129dd565b91505092915050565b6000604082019050612a346000830185612557565b612a416020830184612436565b9392505050565b600081519050612a578161274d565b92915050565b600060208284031215612a7357612a72612460565b5b6000612a8184828501612a48565b91505092915050565b600082825260208201905092915050565b7f41756374696f6e2063616e206e6f742073746172740000000000000000000000600082015250565b6000612ad1601583612a8a565b9150612adc82612a9b565b602082019050919050565b60006020820190508181036000830152612b0081612ac4565b9050919050565b7f41756374696f6e2063616e206e6f7420656e64206265666f726520697420737460008201527f6172747300000000000000000000000000000000000000000000000000000000602082015250565b6000612b63602483612a8a565b9150612b6e82612b07565b604082019050919050565b60006020820190508181036000830152612b9281612b56565b9050919050565b7f496e697469616c207072696365206d757374206265206772656174657220746860008201527f616e203000000000000000000000000000000000000000000000000000000000602082015250565b6000612bf5602483612a8a565b9150612c0082612b99565b604082019050919050565b60006020820190508181036000830152612c2481612be8565b9050919050565b600081519050612c3a81612984565b92915050565b600060208284031215612c5657612c55612460565b5b6000612c6484828501612c2b565b91505092915050565b7f4e6f7420746865206f776572206f662074686973204e46540000000000000000600082015250565b6000612ca3601883612a8a565b9150612cae82612c6d565b602082019050919050565b60006020820190508181036000830152612cd281612c96565b9050919050565b7f5468697320636f6e7472616374206d75737420626520617070726f766564207460008201527f6f207472616e736665722074686520746f6b656e000000000000000000000000602082015250565b6000612d35603483612a8a565b9150612d4082612cd9565b604082019050919050565b60006020820190508181036000830152612d6481612d28565b9050919050565b600082825260208201905092915050565b50565b6000612d8c600083612d6b565b9150612d9782612d7c565b600082019050919050565b6000608082019050612db76000830186612557565b612dc46020830185612557565b612dd16040830184612436565b8181036060830152612de281612d7f565b9050949350505050565b7f4e487b7100000000000000000000000000000000000000000000000000000000600052603260045260246000fd5b7f4f6e6c792061756374696f6e656572206f72206f776e65722063616e2070657260008201527f666f726d207468697320616374696f6e00000000000000000000000000000000602082015250565b6000612e77603083612a8a565b9150612e8282612e1b565b604082019050919050565b60006020820190508181036000830152612ea681612e6a565b9050919050565b7f41756374696f6e20697320616c726561647920636f6d706c6574656400000000600082015250565b6000612ee3601c83612a8a565b9150612eee82612ead565b602082019050919050565b60006020820190508181036000830152612f1281612ed6565b9050919050565b7f41756374696f6e206973206e6f74206163746976650000000000000000000000600082015250565b6000612f4f601583612a8a565b9150612f5a82612f19565b602082019050919050565b60006020820190508181036000830152612f7e81612f42565b9050919050565b7f41756374696f6e206d75737420626520696e2072756e74696d65000000000000600082015250565b6000612fbb601a83612a8a565b9150612fc682612f85565b602082019050919050565b60006020820190508181036000830152612fea81612fae565b9050919050565b60006060820190506130066000830186612557565b6130136020830185612557565b6130206040830184612436565b949350505050565b7f4e487b7100000000000000000000000000000000000000000000000000000000600052604160045260246000fd5b7f4e487b7100000000000000000000000000000000000000000000000000000000600052601160045260246000fd5b60006130918261242c565b91507fffffffffffffffffffffffffffffffffffffffffffffffffffffffffffffffff82036130c3576130c2613057565b5b600182019050919050565b7f41756374696f6e2074696d65206973206e6f74206f7665722079657400000000600082015250565b6000613104601c83612a8a565b915061310f826130ce565b602082019050919050565b60006020820190508181036000830152613133816130f7565b9050919050565b60006131458261242c565b91506131508361242c565b925082820390508181111561316857613167613057565b5b92915050565b60006131798261242c565b91506131848361242c565b92508282026131928161242c565b915082820484148315176131a9576131a8613057565b5b5092915050565b7f4e487b7100000000000000000000000000000000000000000000000000000000600052601260045260246000fd5b60006131ea8261242c565b91506131f58361242c565b925082613205576132046131b0565b5b828204905092915050565b7f41756374696f6e20686173206e6f742073746172746564000000000000000000600082015250565b6000613246601783612a8a565b915061325182613210565b602082019050919050565b6000602082019050818103600083015261327581613239565b9050919050565b7f41756374696f6e2074696d65206f757420746f20626964000000000000000000600082015250565b60006132b2601783612a8a565b91506132bd8261327c565b602082019050919050565b600060208201905081810360008301526132e1816132a5565b9050919050565b7f426964207072696365206d7573742062652067726561746572207468616e207460008201527f6865206d696e696d756d20707269636500000000000000000000000000000000602082015250565b6000613344603083612a8a565b915061334f826132e8565b604082019050919050565b6000602082019050818103600083015261337381613337565b9050919050565b7f496e73756666696369656e742062616c616e6365000000000000000000000000600082015250565b60006133b0601483612a8a565b91506133bb8261337a565b602082019050919050565b600060208201905081810360008301526133df816133a3565b9050919050565b60006040820190506133fb6000830185612557565b6134086020830184612557565b9392505050565b7f43616e206e6f7420626964206f6e20796f7572206f776e2061756374696f6e00600082015250565b6000613445601f83612a8a565b91506134508261340f565b602082019050919050565b6000602082019050818103600083015261347481613438565b9050919050565b7f4f776e61626c653a206e6577206f776e657220697320746865207a65726f206160008201527f6464726573730000000000000000000000000000000000000000000000000000602082015250565b60006134d7602683612a8a565b91506134e28261347b565b604082019050919050565b60006020820190508181036000830152613506816134ca565b9050919050565b7f4f776e61626c653a2063616c6c6572206973206e6f7420746865206f776e6572600082015250565b6000613543602083612a8a565b915061354e8261350d565b602082019050919050565b6000602082019050818103600083015261357281613536565b9050919050565b7f5361666545524332303a204552433230206f7065726174696f6e20646964206e60008201527f6f74207375636365656400000000000000000000000000000000000000000000602082015250565b60006135d5602a83612a8a565b91506135e082613579565b604082019050919050565b60006020820190508181036000830152613604816135c8565b9050919050565b7f416464726573733a20696e73756666696369656e742062616c616e636520666f60008201527f722063616c6c0000000000000000000000000000000000000000000000000000602082015250565b6000613667602683612a8a565b91506136728261360b565b604082019050919050565b600060208201905081810360008301526136968161365a565b9050919050565b600081519050919050565b600081905092915050565b60005b838110156136d15780820151818401526020810190506136b6565b60008484015250505050565b60006136e88261369d565b6136f281856136a8565b93506137028185602086016136b3565b80840191505092915050565b600061371a82846136dd565b915081905092915050565b7f416464726573733a2063616c6c20746f206e6f6e2d636f6e7472616374000000600082015250565b600061375b601d83612a8a565b915061376682613725565b602082019050919050565b6000602082019050818103600083015261378a8161374e565b9050919050565b600081519050919050565b6000601f19601f8301169050919050565b60006137b882613791565b6137c28185612a8a565b93506137d28185602086016136b3565b6137db8161379c565b840191505092915050565b6000602082019050818103600083015261380081846137ad565b90509291505056fea2646970667358221220471c7e088b8c01c48dd7febb8b526a45b55774234650403d86e1bfa4e8de32bd64736f6c63430008120033",
  "linkReferences": {},
  "deployedLinkReferences": {}
}