{
  "_format": "hh-sol-artifact-1",
  "contractName": "CrownNFT",
  "sourceName": "contracts/Crown.sol",
  "abi": [
    {
      "inputs": [],
      "stateMutability": "nonpayable",
      "type": "constructor"
    },
    {
      "anonymous": false,
      "inputs": [
        {
          "indexed": true,
          "internalType": "address",
          "name": "owner",
          "type": "address"
        },
        {
          "indexed": true,
          "internalType": "address",
          "name": "approved",
          "type": "address"
        },
        {
          "indexed": true,
          "internalType": "uint256",
          "name": "tokenId",
          "type": "uint256"
        }
      ],
      "name": "Approval",
      "type": "event"
    },
    {
      "anonymous": false,
      "inputs": [
        {
          "indexed": true,
          "internalType": "address",
          "name": "owner",
          "type": "address"
        },
        {
          "indexed": true,
          "internalType": "address",
          "name": "operator",
          "type": "address"
        },
        {
          "indexed": false,
          "internalType": "bool",
          "name": "approved",
          "type": "bool"
        }
      ],
      "name": "ApprovalForAll",
      "type": "event"
    },
    {
      "anonymous": false,
      "inputs": [
        {
          "indexed": true,
          "internalType": "address",
          "name": "previousOwner",
          "type": "address"
        },
        {
          "indexed": true,
          "internalType": "address",
          "name": "newOwner",
          "type": "address"
        }
      ],
      "name": "OwnershipTransferred",
      "type": "event"
    },
    {
      "anonymous": false,
      "inputs": [
        {
          "indexed": true,
          "internalType": "address",
          "name": "from",
          "type": "address"
        },
        {
          "indexed": true,
          "internalType": "address",
          "name": "to",
          "type": "address"
        },
        {
          "indexed": true,
          "internalType": "uint256",
          "name": "tokenId",
          "type": "uint256"
        }
      ],
      "name": "Transfer",
      "type": "event"
    },
    {
      "inputs": [],
      "name": "MAX_SUPPLY",
      "outputs": [
        {
          "internalType": "uint256",
          "name": "",
          "type": "uint256"
        }
      ],
      "stateMutability": "view",
      "type": "function"
    },
    {
      "inputs": [
        {
          "internalType": "address",
          "name": "to",
          "type": "address"
        },
        {
          "internalType": "uint256",
          "name": "tokenId",
          "type": "uint256"
        }
      ],
      "name": "approve",
      "outputs": [],
      "stateMutability": "nonpayable",
      "type": "function"
    },
    {
      "inputs": [
        {
          "internalType": "address",
          "name": "owner",
          "type": "address"
        }
      ],
      "name": "balanceOf",
      "outputs": [
        {
          "internalType": "uint256",
          "name": "",
          "type": "uint256"
        }
      ],
      "stateMutability": "view",
      "type": "function"
    },
    {
      "inputs": [],
      "name": "baseExtension",
      "outputs": [
        {
          "internalType": "string",
          "name": "",
          "type": "string"
        }
      ],
      "stateMutability": "view",
      "type": "function"
    },
    {
      "inputs": [
        {
          "internalType": "uint256",
          "name": "tokenId",
          "type": "uint256"
        }
      ],
      "name": "burn",
      "outputs": [],
      "stateMutability": "nonpayable",
      "type": "function"
    },
    {
      "inputs": [
        {
          "internalType": "uint256",
          "name": "tokenId",
          "type": "uint256"
        }
      ],
      "name": "getApproved",
      "outputs": [
        {
          "internalType": "address",
          "name": "",
          "type": "address"
        }
      ],
      "stateMutability": "view",
      "type": "function"
    },
    {
      "inputs": [
        {
          "internalType": "address",
          "name": "owner",
          "type": "address"
        },
        {
          "internalType": "address",
          "name": "operator",
          "type": "address"
        }
      ],
      "name": "isApprovedForAll",
      "outputs": [
        {
          "internalType": "bool",
          "name": "",
          "type": "bool"
        }
      ],
      "stateMutability": "view",
      "type": "function"
    },
    {
      "inputs": [
        {
          "internalType": "address",
          "name": "owner",
          "type": "address"
        }
      ],
      "name": "listTokenIds",
      "outputs": [
        {
          "internalType": "uint256[]",
          "name": "",
          "type": "uint256[]"
        }
      ],
      "stateMutability": "view",
      "type": "function"
    },
    {
      "inputs": [],
      "name": "name",
      "outputs": [
        {
          "internalType": "string",
          "name": "",
          "type": "string"
        }
      ],
      "stateMutability": "view",
      "type": "function"
    },
    {
      "inputs": [],
      "name": "owner",
      "outputs": [
        {
          "internalType": "address",
          "name": "",
          "type": "address"
        }
      ],
      "stateMutability": "view",
      "type": "function"
    },
    {
      "inputs": [
        {
          "internalType": "uint256",
          "name": "tokenId",
          "type": "uint256"
        }
      ],
      "name": "ownerOf",
      "outputs": [
        {
          "internalType": "address",
          "name": "",
          "type": "address"
        }
      ],
      "stateMutability": "view",
      "type": "function"
    },
    {
      "inputs": [],
      "name": "renounceOwnership",
      "outputs": [],
      "stateMutability": "nonpayable",
      "type": "function"
    },
    {
      "inputs": [
        {
          "internalType": "address",
          "name": "to",
          "type": "address"
        }
      ],
      "name": "safeMint",
      "outputs": [
        {
          "internalType": "uint256",
          "name": "",
          "type": "uint256"
        }
      ],
      "stateMutability": "nonpayable",
      "type": "function"
    },
    {
      "inputs": [
        {
          "internalType": "address",
          "name": "from",
          "type": "address"
        },
        {
          "internalType": "address",
          "name": "to",
          "type": "address"
        },
        {
          "internalType": "uint256",
          "name": "tokenId",
          "type": "uint256"
        }
      ],
      "name": "safeTransferFrom",
      "outputs": [],
      "stateMutability": "nonpayable",
      "type": "function"
    },
    {
      "inputs": [
        {
          "internalType": "address",
          "name": "from",
          "type": "address"
        },
        {
          "internalType": "address",
          "name": "to",
          "type": "address"
        },
        {
          "internalType": "uint256",
          "name": "tokenId",
          "type": "uint256"
        },
        {
          "internalType": "bytes",
          "name": "data",
          "type": "bytes"
        }
      ],
      "name": "safeTransferFrom",
      "outputs": [],
      "stateMutability": "nonpayable",
      "type": "function"
    },
    {
      "inputs": [
        {
          "internalType": "address",
          "name": "operator",
          "type": "address"
        },
        {
          "internalType": "bool",
          "name": "approved",
          "type": "bool"
        }
      ],
      "name": "setApprovalForAll",
      "outputs": [],
      "stateMutability": "nonpayable",
      "type": "function"
    },
    {
      "inputs": [
        {
          "internalType": "string",
          "name": "baseUri",
          "type": "string"
        }
      ],
      "name": "setBaseUri",
      "outputs": [],
      "stateMutability": "nonpayable",
      "type": "function"
    },
    {
      "inputs": [
        {
          "internalType": "string",
          "name": "_extension",
          "type": "string"
        }
      ],
      "name": "setExtension",
      "outputs": [],
      "stateMutability": "nonpayable",
      "type": "function"
    },
    {
      "inputs": [
        {
          "internalType": "bytes4",
          "name": "interfaceId",
          "type": "bytes4"
        }
      ],
      "name": "supportsInterface",
      "outputs": [
        {
          "internalType": "bool",
          "name": "",
          "type": "bool"
        }
      ],
      "stateMutability": "view",
      "type": "function"
    },
    {
      "inputs": [],
      "name": "symbol",
      "outputs": [
        {
          "internalType": "string",
          "name": "",
          "type": "string"
        }
      ],
      "stateMutability": "view",
      "type": "function"
    },
    {
      "inputs": [
        {
          "internalType": "uint256",
          "name": "index",
          "type": "uint256"
        }
      ],
      "name": "tokenByIndex",
      "outputs": [
        {
          "internalType": "uint256",
          "name": "",
          "type": "uint256"
        }
      ],
      "stateMutability": "view",
      "type": "function"
    },
    {
      "inputs": [
        {
          "internalType": "address",
          "name": "owner",
          "type": "address"
        },
        {
          "internalType": "uint256",
          "name": "index",
          "type": "uint256"
        }
      ],
      "name": "tokenOfOwnerByIndex",
      "outputs": [
        {
          "internalType": "uint256",
          "name": "",
          "type": "uint256"
        }
      ],
      "stateMutability": "view",
      "type": "function"
    },
    {
      "inputs": [
        {
          "internalType": "uint256",
          "name": "_tokenId",
          "type": "uint256"
        }
      ],
      "name": "tokenURI",
      "outputs": [
        {
          "internalType": "string",
          "name": "",
          "type": "string"
        }
      ],
      "stateMutability": "view",
      "type": "function"
    },
    {
      "inputs": [],
      "name": "totalSupply",
      "outputs": [
        {
          "internalType": "uint256",
          "name": "",
          "type": "uint256"
        }
      ],
      "stateMutability": "view",
      "type": "function"
    },
    {
      "inputs": [
        {
          "internalType": "address",
          "name": "from",
          "type": "address"
        },
        {
          "internalType": "address",
          "name": "to",
          "type": "address"
        },
        {
          "internalType": "uint256",
          "name": "tokenId",
          "type": "uint256"
        }
      ],
      "name": "transferFrom",
      "outputs": [],
      "stateMutability": "nonpayable",
      "type": "function"
    },
    {
      "inputs": [
        {
          "internalType": "address",
          "name": "newOwner",
          "type": "address"
        }
      ],
      "name": "transferOwnership",
      "outputs": [],
      "stateMutability": "nonpayable",
      "type": "function"
    }
  ],
  "bytecode": "0x60806040526040518060400160405280600f81526020017f2e6a736f6e3f616c743d6d656469610000000000000000000000000000000000815250600d90816200004a919062000459565b503480156200005857600080fd5b506040518060400160405280600881526020017f43726f776e4e46540000000000000000000000000000000000000000000000008152506040518060400160405280600581526020017f43524f574e0000000000000000000000000000000000000000000000000000008152508160009081620000d6919062000459565b508060019081620000e8919062000459565b5050506200010b620000ff6200011160201b60201c565b6200011960201b60201c565b62000540565b600033905090565b6000600a60009054906101000a900473ffffffffffffffffffffffffffffffffffffffff16905081600a60006101000a81548173ffffffffffffffffffffffffffffffffffffffff021916908373ffffffffffffffffffffffffffffffffffffffff1602179055508173ffffffffffffffffffffffffffffffffffffffff168173ffffffffffffffffffffffffffffffffffffffff167f8be0079c531659141344cd1fd0a4f28419497f9722a3daafe3b4186f6b6457e060405160405180910390a35050565b600081519050919050565b7f4e487b7100000000000000000000000000000000000000000000000000000000600052604160045260246000fd5b7f4e487b7100000000000000000000000000000000000000000000000000000000600052602260045260246000fd5b600060028204905060018216806200026157607f821691505b60208210810362000277576200027662000219565b5b50919050565b60008190508160005260206000209050919050565b60006020601f8301049050919050565b600082821b905092915050565b600060088302620002e17fffffffffffffffffffffffffffffffffffffffffffffffffffffffffffffffff82620002a2565b620002ed8683620002a2565b95508019841693508086168417925050509392505050565b6000819050919050565b6000819050919050565b60006200033a620003346200032e8462000305565b6200030f565b62000305565b9050919050565b6000819050919050565b620003568362000319565b6200036e620003658262000341565b848454620002af565b825550505050565b600090565b6200038562000376565b620003928184846200034b565b505050565b5b81811015620003ba57620003ae6000826200037b565b60018101905062000398565b5050565b601f8211156200040957620003d3816200027d565b620003de8462000292565b81016020851015620003ee578190505b62000406620003fd8562000292565b83018262000397565b50505b505050565b600082821c905092915050565b60006200042e600019846008026200040e565b1980831691505092915050565b60006200044983836200041b565b9150826002028217905092915050565b6200046482620001df565b67ffffffffffffffff81111562000480576200047f620001ea565b5b6200048c825462000248565b62000499828285620003be565b600060209050601f831160018114620004d15760008415620004bc578287015190505b620004c885826200043b565b86555062000538565b601f198416620004e1866200027d565b60005b828110156200050b57848901518255600182019150602085019450602081019050620004e4565b868310156200052b578489015162000527601f8916826200041b565b8355505b6001600288020188555050505b505050505050565b613d9180620005506000396000f3fe608060405234801561001057600080fd5b506004361061018e5760003560e01c806370a08231116100de578063a22cb46511610097578063c87b56dd11610071578063c87b56dd14610481578063e2a4fad3146104b1578063e985e9c5146104e1578063f2fde38b146105115761018e565b8063a22cb4651461042b578063b88d4fde14610447578063c6682862146104635761018e565b806370a082311461037d578063715018a6146103ad5780637e2285aa146103b75780638da5cb5b146103d357806395d89b41146103f1578063a0bcfc7f1461040f5761018e565b80632f745c591161014b57806342842e0e1161012557806342842e0e146102e557806342966c68146103015780634f6ccce71461031d5780636352211e1461034d5761018e565b80632f745c591461026757806332cb6b0c1461029757806340d097c3146102b55761018e565b806301ffc9a71461019357806306fdde03146101c3578063081812fc146101e1578063095ea7b31461021157806318160ddd1461022d57806323b872dd1461024b575b600080fd5b6101ad60048036038101906101a89190612572565b61052d565b6040516101ba91906125ba565b60405180910390f35b6101cb6105a7565b6040516101d89190612665565b60405180910390f35b6101fb60048036038101906101f691906126bd565b610639565b604051610208919061272b565b60405180910390f35b61022b60048036038101906102269190612772565b61067f565b005b610235610796565b60405161024291906127c1565b60405180910390f35b610265600480360381019061026091906127dc565b6107a3565b005b610281600480360381019061027c9190612772565b610803565b60405161028e91906127c1565b60405180910390f35b61029f6108a8565b6040516102ac91906127c1565b60405180910390f35b6102cf60048036038101906102ca919061282f565b6108ad565b6040516102dc91906127c1565b60405180910390f35b6102ff60048036038101906102fa91906127dc565b610926565b005b61031b600480360381019061031691906126bd565b610946565b005b610337600480360381019061033291906126bd565b61099b565b60405161034491906127c1565b60405180910390f35b610367600480360381019061036291906126bd565b610a0c565b604051610374919061272b565b60405180910390f35b6103976004803603810190610392919061282f565b610a92565b6040516103a491906127c1565b60405180910390f35b6103b5610b49565b005b6103d160048036038101906103cc9190612991565b610b53565b005b6103db610b6e565b6040516103e8919061272b565b60405180910390f35b6103f9610b98565b6040516104069190612665565b60405180910390f35b61042960048036038101906104249190612a3a565b610c2a565b005b61044560048036038101906104409190612ab3565b610c48565b005b610461600480360381019061045c9190612b94565b610c5e565b005b61046b610cc0565b6040516104789190612665565b60405180910390f35b61049b600480360381019061049691906126bd565b610d4e565b6040516104a89190612665565b60405180910390f35b6104cb60048036038101906104c6919061282f565b610d8e565b6040516104d89190612cd5565b60405180910390f35b6104fb60048036038101906104f69190612cf7565b610e3c565b60405161050891906125ba565b60405180910390f35b61052b6004803603810190610526919061282f565b610ed0565b005b60007f780e9d63000000000000000000000000000000000000000000000000000000007bffffffffffffffffffffffffffffffffffffffffffffffffffffffff1916827bffffffffffffffffffffffffffffffffffffffffffffffffffffffff191614806105a0575061059f82610f53565b5b9050919050565b6060600080546105b690612d66565b80601f01602080910402602001604051908101604052809291908181526020018280546105e290612d66565b801561062f5780601f106106045761010080835404028352916020019161062f565b820191906000526020600020905b81548152906001019060200180831161061257829003601f168201915b5050505050905090565b600061064482611035565b6004600083815260200190815260200160002060009054906101000a900473ffffffffffffffffffffffffffffffffffffffff169050919050565b600061068a82610a0c565b90508073ffffffffffffffffffffffffffffffffffffffff168373ffffffffffffffffffffffffffffffffffffffff16036106fa576040517f08c379a00000000000000000000000000000000000000000000000000000000081526004016106f190612e09565b60405180910390fd5b8073ffffffffffffffffffffffffffffffffffffffff16610719611080565b73ffffffffffffffffffffffffffffffffffffffff161480610748575061074781610742611080565b610e3c565b5b610787576040517f08c379a000000000000000000000000000000000000000000000000000000000815260040161077e90612e9b565b60405180910390fd5b6107918383611088565b505050565b6000600880549050905090565b6107b46107ae611080565b82611141565b6107f3576040517f08c379a00000000000000000000000000000000000000000000000000000000081526004016107ea90612f2d565b60405180910390fd5b6107fe8383836111d6565b505050565b600061080e83610a92565b821061084f576040517f08c379a000000000000000000000000000000000000000000000000000000000815260040161084690612fbf565b60405180910390fd5b600660008473ffffffffffffffffffffffffffffffffffffffff1673ffffffffffffffffffffffffffffffffffffffff168152602001908152602001600020600083815260200190815260200160002054905092915050565b600a81565b60006108b76114cf565b6108c1600b61154d565b60006108cd600b611563565b9050600a811115610913576040517f08c379a000000000000000000000000000000000000000000000000000000000815260040161090a9061302b565b60405180910390fd5b61091d8382611571565b80915050919050565b61094183838360405180602001604052806000815250610c5e565b505050565b6109503382611141565b61098f576040517f08c379a0000000000000000000000000000000000000000000000000000000008152600401610986906130bd565b60405180910390fd5b6109988161158f565b50565b60006109a5610796565b82106109e6576040517f08c379a00000000000000000000000000000000000000000000000000000000081526004016109dd9061314f565b60405180910390fd5b600882815481106109fa576109f961316f565b5b90600052602060002001549050919050565b600080610a18836116dd565b9050600073ffffffffffffffffffffffffffffffffffffffff168173ffffffffffffffffffffffffffffffffffffffff1603610a89576040517f08c379a0000000000000000000000000000000000000000000000000000000008152600401610a80906131ea565b60405180910390fd5b80915050919050565b60008073ffffffffffffffffffffffffffffffffffffffff168273ffffffffffffffffffffffffffffffffffffffff1603610b02576040517f08c379a0000000000000000000000000000000000000000000000000000000008152600401610af99061327c565b60405180910390fd5b600360008373ffffffffffffffffffffffffffffffffffffffff1673ffffffffffffffffffffffffffffffffffffffff168152602001908152602001600020549050919050565b610b516114cf565b565b610b5b6114cf565b80600d9081610b6a9190613448565b5050565b6000600a60009054906101000a900473ffffffffffffffffffffffffffffffffffffffff16905090565b606060018054610ba790612d66565b80601f0160208091040260200160405190810160405280929190818152602001828054610bd390612d66565b8015610c205780601f10610bf557610100808354040283529160200191610c20565b820191906000526020600020905b815481529060010190602001808311610c0357829003601f168201915b5050505050905090565b610c326114cf565b8181600c9182610c43929190613525565b505050565b610c5a610c53611080565b838361171a565b5050565b610c6f610c69611080565b83611141565b610cae576040517f08c379a0000000000000000000000000000000000000000000000000000000008152600401610ca590612f2d565b60405180910390fd5b610cba84848484611886565b50505050565b600d8054610ccd90612d66565b80601f0160208091040260200160405190810160405280929190818152602001828054610cf990612d66565b8015610d465780601f10610d1b57610100808354040283529160200191610d46565b820191906000526020600020905b815481529060010190602001808311610d2957829003601f168201915b505050505081565b6060610d5982611035565b600c610d64836118e2565b600d604051602001610d78939291906136b4565b6040516020818303038152906040529050919050565b60606000610d9b83610a92565b905060008167ffffffffffffffff811115610db957610db8612866565b5b604051908082528060200260200182016040528015610de75781602001602082028036833780820191505090505b50905060005b82811015610e3157610dff8582610803565b828281518110610e1257610e1161316f565b5b6020026020010181815250508080610e2990613714565b915050610ded565b508092505050919050565b6000600560008473ffffffffffffffffffffffffffffffffffffffff1673ffffffffffffffffffffffffffffffffffffffff16815260200190815260200160002060008373ffffffffffffffffffffffffffffffffffffffff1673ffffffffffffffffffffffffffffffffffffffff16815260200190815260200160002060009054906101000a900460ff16905092915050565b610ed86114cf565b600073ffffffffffffffffffffffffffffffffffffffff168173ffffffffffffffffffffffffffffffffffffffff1603610f47576040517f08c379a0000000000000000000000000000000000000000000000000000000008152600401610f3e906137ce565b60405180910390fd5b610f50816119b0565b50565b60007f80ac58cd000000000000000000000000000000000000000000000000000000007bffffffffffffffffffffffffffffffffffffffffffffffffffffffff1916827bffffffffffffffffffffffffffffffffffffffffffffffffffffffff1916148061101e57507f5b5e139f000000000000000000000000000000000000000000000000000000007bffffffffffffffffffffffffffffffffffffffffffffffffffffffff1916827bffffffffffffffffffffffffffffffffffffffffffffffffffffffff1916145b8061102e575061102d82611a76565b5b9050919050565b61103e81611ae0565b61107d576040517f08c379a0000000000000000000000000000000000000000000000000000000008152600401611074906131ea565b60405180910390fd5b50565b600033905090565b816004600083815260200190815260200160002060006101000a81548173ffffffffffffffffffffffffffffffffffffffff021916908373ffffffffffffffffffffffffffffffffffffffff160217905550808273ffffffffffffffffffffffffffffffffffffffff166110fb83610a0c565b73ffffffffffffffffffffffffffffffffffffffff167f8c5be1e5ebec7d5bd14f71427d1e84f3dd0314c0f7b2291e5b200ac8c7c3b92560405160405180910390a45050565b60008061114d83610a0c565b90508073ffffffffffffffffffffffffffffffffffffffff168473ffffffffffffffffffffffffffffffffffffffff16148061118f575061118e8185610e3c565b5b806111cd57508373ffffffffffffffffffffffffffffffffffffffff166111b584610639565b73ffffffffffffffffffffffffffffffffffffffff16145b91505092915050565b8273ffffffffffffffffffffffffffffffffffffffff166111f682610a0c565b73ffffffffffffffffffffffffffffffffffffffff161461124c576040517f08c379a000000000000000000000000000000000000000000000000000000000815260040161124390613860565b60405180910390fd5b600073ffffffffffffffffffffffffffffffffffffffff168273ffffffffffffffffffffffffffffffffffffffff16036112bb576040517f08c379a00000000000000000000000000000000000000000000000000000000081526004016112b2906138f2565b60405180910390fd5b6112c88383836001611b21565b8273ffffffffffffffffffffffffffffffffffffffff166112e882610a0c565b73ffffffffffffffffffffffffffffffffffffffff161461133e576040517f08c379a000000000000000000000000000000000000000000000000000000000815260040161133590613860565b60405180910390fd5b6004600082815260200190815260200160002060006101000a81549073ffffffffffffffffffffffffffffffffffffffff02191690556001600360008573ffffffffffffffffffffffffffffffffffffffff1673ffffffffffffffffffffffffffffffffffffffff168152602001908152602001600020600082825403925050819055506001600360008473ffffffffffffffffffffffffffffffffffffffff1673ffffffffffffffffffffffffffffffffffffffff16815260200190815260200160002060008282540192505081905550816002600083815260200190815260200160002060006101000a81548173ffffffffffffffffffffffffffffffffffffffff021916908373ffffffffffffffffffffffffffffffffffffffff160217905550808273ffffffffffffffffffffffffffffffffffffffff168473ffffffffffffffffffffffffffffffffffffffff167fddf252ad1be2c89b69c2b068fc378daa952ba7f163c4a11628f55a4df523b3ef60405160405180910390a46114ca8383836001611c7f565b505050565b6114d7611080565b73ffffffffffffffffffffffffffffffffffffffff166114f5610b6e565b73ffffffffffffffffffffffffffffffffffffffff161461154b576040517f08c379a00000000000000000000000000000000000000000000000000000000081526004016115429061395e565b60405180910390fd5b565b6001816000016000828254019250508190555050565b600081600001549050919050565b61158b828260405180602001604052806000815250611c85565b5050565b600061159a82610a0c565b90506115aa816000846001611b21565b6115b382610a0c565b90506004600083815260200190815260200160002060006101000a81549073ffffffffffffffffffffffffffffffffffffffff02191690556001600360008373ffffffffffffffffffffffffffffffffffffffff1673ffffffffffffffffffffffffffffffffffffffff168152602001908152602001600020600082825403925050819055506002600083815260200190815260200160002060006101000a81549073ffffffffffffffffffffffffffffffffffffffff021916905581600073ffffffffffffffffffffffffffffffffffffffff168273ffffffffffffffffffffffffffffffffffffffff167fddf252ad1be2c89b69c2b068fc378daa952ba7f163c4a11628f55a4df523b3ef60405160405180910390a46116d9816000846001611c7f565b5050565b60006002600083815260200190815260200160002060009054906101000a900473ffffffffffffffffffffffffffffffffffffffff169050919050565b8173ffffffffffffffffffffffffffffffffffffffff168373ffffffffffffffffffffffffffffffffffffffff1603611788576040517f08c379a000000000000000000000000000000000000000000000000000000000815260040161177f906139ca565b60405180910390fd5b80600560008573ffffffffffffffffffffffffffffffffffffffff1673ffffffffffffffffffffffffffffffffffffffff16815260200190815260200160002060008473ffffffffffffffffffffffffffffffffffffffff1673ffffffffffffffffffffffffffffffffffffffff16815260200190815260200160002060006101000a81548160ff0219169083151502179055508173ffffffffffffffffffffffffffffffffffffffff168373ffffffffffffffffffffffffffffffffffffffff167f17307eab39ab6107e8899845ad3d59bd9653f200f220920489ca2b5937696c318360405161187991906125ba565b60405180910390a3505050565b6118918484846111d6565b61189d84848484611ce0565b6118dc576040517f08c379a00000000000000000000000000000000000000000000000000000000081526004016118d390613a5c565b60405180910390fd5b50505050565b6060600060016118f184611e67565b01905060008167ffffffffffffffff8111156119105761190f612866565b5b6040519080825280601f01601f1916602001820160405280156119425781602001600182028036833780820191505090505b509050600082602001820190505b6001156119a5578080600190039150507f3031323334353637383961626364656600000000000000000000000000000000600a86061a8153600a858161199957611998613a7c565b5b04945060008503611950575b819350505050919050565b6000600a60009054906101000a900473ffffffffffffffffffffffffffffffffffffffff16905081600a60006101000a81548173ffffffffffffffffffffffffffffffffffffffff021916908373ffffffffffffffffffffffffffffffffffffffff1602179055508173ffffffffffffffffffffffffffffffffffffffff168173ffffffffffffffffffffffffffffffffffffffff167f8be0079c531659141344cd1fd0a4f28419497f9722a3daafe3b4186f6b6457e060405160405180910390a35050565b60007f01ffc9a7000000000000000000000000000000000000000000000000000000007bffffffffffffffffffffffffffffffffffffffffffffffffffffffff1916827bffffffffffffffffffffffffffffffffffffffffffffffffffffffff1916149050919050565b60008073ffffffffffffffffffffffffffffffffffffffff16611b02836116dd565b73ffffffffffffffffffffffffffffffffffffffff1614159050919050565b611b2d84848484611fba565b6001811115611b71576040517f08c379a0000000000000000000000000000000000000000000000000000000008152600401611b6890613b1d565b60405180910390fd5b6000829050600073ffffffffffffffffffffffffffffffffffffffff168573ffffffffffffffffffffffffffffffffffffffff1603611bb857611bb381611fc0565b611bf7565b8373ffffffffffffffffffffffffffffffffffffffff168573ffffffffffffffffffffffffffffffffffffffff1614611bf657611bf58582612009565b5b5b600073ffffffffffffffffffffffffffffffffffffffff168473ffffffffffffffffffffffffffffffffffffffff1603611c3957611c3481612176565b611c78565b8473ffffffffffffffffffffffffffffffffffffffff168473ffffffffffffffffffffffffffffffffffffffff1614611c7757611c768482612247565b5b5b5050505050565b50505050565b611c8f83836122c6565b611c9c6000848484611ce0565b611cdb576040517f08c379a0000000000000000000000000000000000000000000000000000000008152600401611cd290613a5c565b60405180910390fd5b505050565b6000611d018473ffffffffffffffffffffffffffffffffffffffff166124e3565b15611e5a578373ffffffffffffffffffffffffffffffffffffffff1663150b7a02611d2a611080565b8786866040518563ffffffff1660e01b8152600401611d4c9493929190613b92565b6020604051808303816000875af1925050508015611d8857506040513d601f19601f82011682018060405250810190611d859190613bf3565b60015b611e0a573d8060008114611db8576040519150601f19603f3d011682016040523d82523d6000602084013e611dbd565b606091505b506000815103611e02576040517f08c379a0000000000000000000000000000000000000000000000000000000008152600401611df990613a5c565b60405180910390fd5b805181602001fd5b63150b7a0260e01b7bffffffffffffffffffffffffffffffffffffffffffffffffffffffff1916817bffffffffffffffffffffffffffffffffffffffffffffffffffffffff191614915050611e5f565b600190505b949350505050565b600080600090507a184f03e93ff9f4daa797ed6e38ed64bf6a1f0100000000000000008310611ec5577a184f03e93ff9f4daa797ed6e38ed64bf6a1f0100000000000000008381611ebb57611eba613a7c565b5b0492506040810190505b6d04ee2d6d415b85acef81000000008310611f02576d04ee2d6d415b85acef81000000008381611ef857611ef7613a7c565b5b0492506020810190505b662386f26fc100008310611f3157662386f26fc100008381611f2757611f26613a7c565b5b0492506010810190505b6305f5e1008310611f5a576305f5e1008381611f5057611f4f613a7c565b5b0492506008810190505b6127108310611f7f576127108381611f7557611f74613a7c565b5b0492506004810190505b60648310611fa25760648381611f9857611f97613a7c565b5b0492506002810190505b600a8310611fb1576001810190505b80915050919050565b50505050565b6008805490506009600083815260200190815260200160002081905550600881908060018154018082558091505060019003906000526020600020016000909190919091505550565b6000600161201684610a92565b6120209190613c20565b9050600060076000848152602001908152602001600020549050818114612105576000600660008673ffffffffffffffffffffffffffffffffffffffff1673ffffffffffffffffffffffffffffffffffffffff168152602001908152602001600020600084815260200190815260200160002054905080600660008773ffffffffffffffffffffffffffffffffffffffff1673ffffffffffffffffffffffffffffffffffffffff168152602001908152602001600020600084815260200190815260200160002081905550816007600083815260200190815260200160002081905550505b6007600084815260200190815260200160002060009055600660008573ffffffffffffffffffffffffffffffffffffffff1673ffffffffffffffffffffffffffffffffffffffff16815260200190815260200160002060008381526020019081526020016000206000905550505050565b6000600160088054905061218a9190613c20565b90506000600960008481526020019081526020016000205490506000600883815481106121ba576121b961316f565b5b9060005260206000200154905080600883815481106121dc576121db61316f565b5b90600052602060002001819055508160096000838152602001908152602001600020819055506009600085815260200190815260200160002060009055600880548061222b5761222a613c54565b5b6001900381819060005260206000200160009055905550505050565b600061225283610a92565b905081600660008573ffffffffffffffffffffffffffffffffffffffff1673ffffffffffffffffffffffffffffffffffffffff168152602001908152602001600020600083815260200190815260200160002081905550806007600084815260200190815260200160002081905550505050565b600073ffffffffffffffffffffffffffffffffffffffff168273ffffffffffffffffffffffffffffffffffffffff1603612335576040517f08c379a000000000000000000000000000000000000000000000000000000000815260040161232c90613ccf565b60405180910390fd5b61233e81611ae0565b1561237e576040517f08c379a000000000000000000000000000000000000000000000000000000000815260040161237590613d3b565b60405180910390fd5b61238c600083836001611b21565b61239581611ae0565b156123d5576040517f08c379a00000000000000000000000000000000000000000000000000000000081526004016123cc90613d3b565b60405180910390fd5b6001600360008473ffffffffffffffffffffffffffffffffffffffff1673ffffffffffffffffffffffffffffffffffffffff16815260200190815260200160002060008282540192505081905550816002600083815260200190815260200160002060006101000a81548173ffffffffffffffffffffffffffffffffffffffff021916908373ffffffffffffffffffffffffffffffffffffffff160217905550808273ffffffffffffffffffffffffffffffffffffffff16600073ffffffffffffffffffffffffffffffffffffffff167fddf252ad1be2c89b69c2b068fc378daa952ba7f163c4a11628f55a4df523b3ef60405160405180910390a46124df600083836001611c7f565b5050565b6000808273ffffffffffffffffffffffffffffffffffffffff163b119050919050565b6000604051905090565b600080fd5b600080fd5b60007fffffffff0000000000000000000000000000000000000000000000000000000082169050919050565b61254f8161251a565b811461255a57600080fd5b50565b60008135905061256c81612546565b92915050565b60006020828403121561258857612587612510565b5b60006125968482850161255d565b91505092915050565b60008115159050919050565b6125b48161259f565b82525050565b60006020820190506125cf60008301846125ab565b92915050565b600081519050919050565b600082825260208201905092915050565b60005b8381101561260f5780820151818401526020810190506125f4565b60008484015250505050565b6000601f19601f8301169050919050565b6000612637826125d5565b61264181856125e0565b93506126518185602086016125f1565b61265a8161261b565b840191505092915050565b6000602082019050818103600083015261267f818461262c565b905092915050565b6000819050919050565b61269a81612687565b81146126a557600080fd5b50565b6000813590506126b781612691565b92915050565b6000602082840312156126d3576126d2612510565b5b60006126e1848285016126a8565b91505092915050565b600073ffffffffffffffffffffffffffffffffffffffff82169050919050565b6000612715826126ea565b9050919050565b6127258161270a565b82525050565b6000602082019050612740600083018461271c565b92915050565b61274f8161270a565b811461275a57600080fd5b50565b60008135905061276c81612746565b92915050565b6000806040838503121561278957612788612510565b5b60006127978582860161275d565b92505060206127a8858286016126a8565b9150509250929050565b6127bb81612687565b82525050565b60006020820190506127d660008301846127b2565b92915050565b6000806000606084860312156127f5576127f4612510565b5b60006128038682870161275d565b93505060206128148682870161275d565b9250506040612825868287016126a8565b9150509250925092565b60006020828403121561284557612844612510565b5b60006128538482850161275d565b91505092915050565b600080fd5b600080fd5b7f4e487b7100000000000000000000000000000000000000000000000000000000600052604160045260246000fd5b61289e8261261b565b810181811067ffffffffffffffff821117156128bd576128bc612866565b5b80604052505050565b60006128d0612506565b90506128dc8282612895565b919050565b600067ffffffffffffffff8211156128fc576128fb612866565b5b6129058261261b565b9050602081019050919050565b82818337600083830152505050565b600061293461292f846128e1565b6128c6565b9050828152602081018484840111156129505761294f612861565b5b61295b848285612912565b509392505050565b600082601f8301126129785761297761285c565b5b8135612988848260208601612921565b91505092915050565b6000602082840312156129a7576129a6612510565b5b600082013567ffffffffffffffff8111156129c5576129c4612515565b5b6129d184828501612963565b91505092915050565b600080fd5b600080fd5b60008083601f8401126129fa576129f961285c565b5b8235905067ffffffffffffffff811115612a1757612a166129da565b5b602083019150836001820283011115612a3357612a326129df565b5b9250929050565b60008060208385031215612a5157612a50612510565b5b600083013567ffffffffffffffff811115612a6f57612a6e612515565b5b612a7b858286016129e4565b92509250509250929050565b612a908161259f565b8114612a9b57600080fd5b50565b600081359050612aad81612a87565b92915050565b60008060408385031215612aca57612ac9612510565b5b6000612ad88582860161275d565b9250506020612ae985828601612a9e565b9150509250929050565b600067ffffffffffffffff821115612b0e57612b0d612866565b5b612b178261261b565b9050602081019050919050565b6000612b37612b3284612af3565b6128c6565b905082815260208101848484011115612b5357612b52612861565b5b612b5e848285612912565b509392505050565b600082601f830112612b7b57612b7a61285c565b5b8135612b8b848260208601612b24565b91505092915050565b60008060008060808587031215612bae57612bad612510565b5b6000612bbc8782880161275d565b9450506020612bcd8782880161275d565b9350506040612bde878288016126a8565b925050606085013567ffffffffffffffff811115612bff57612bfe612515565b5b612c0b87828801612b66565b91505092959194509250565b600081519050919050565b600082825260208201905092915050565b6000819050602082019050919050565b612c4c81612687565b82525050565b6000612c5e8383612c43565b60208301905092915050565b6000602082019050919050565b6000612c8282612c17565b612c8c8185612c22565b9350612c9783612c33565b8060005b83811015612cc8578151612caf8882612c52565b9750612cba83612c6a565b925050600181019050612c9b565b5085935050505092915050565b60006020820190508181036000830152612cef8184612c77565b905092915050565b60008060408385031215612d0e57612d0d612510565b5b6000612d1c8582860161275d565b9250506020612d2d8582860161275d565b9150509250929050565b7f4e487b7100000000000000000000000000000000000000000000000000000000600052602260045260246000fd5b60006002820490506001821680612d7e57607f821691505b602082108103612d9157612d90612d37565b5b50919050565b7f4552433732313a20617070726f76616c20746f2063757272656e74206f776e6560008201527f7200000000000000000000000000000000000000000000000000000000000000602082015250565b6000612df36021836125e0565b9150612dfe82612d97565b604082019050919050565b60006020820190508181036000830152612e2281612de6565b9050919050565b7f4552433732313a20617070726f76652063616c6c6572206973206e6f7420746f60008201527f6b656e206f776e6572206f7220617070726f76656420666f7220616c6c000000602082015250565b6000612e85603d836125e0565b9150612e9082612e29565b604082019050919050565b60006020820190508181036000830152612eb481612e78565b9050919050565b7f4552433732313a2063616c6c6572206973206e6f7420746f6b656e206f776e6560008201527f72206f7220617070726f76656400000000000000000000000000000000000000602082015250565b6000612f17602d836125e0565b9150612f2282612ebb565b604082019050919050565b60006020820190508181036000830152612f4681612f0a565b9050919050565b7f455243373231456e756d657261626c653a206f776e657220696e646578206f7560008201527f74206f6620626f756e6473000000000000000000000000000000000000000000602082015250565b6000612fa9602b836125e0565b9150612fb482612f4d565b604082019050919050565b60006020820190508181036000830152612fd881612f9c565b9050919050565b7f43524f574e4e46543a204d6f7265207468616e206d617820737570706c790000600082015250565b6000613015601e836125e0565b915061302082612fdf565b602082019050919050565b6000602082019050818103600083015261304481613008565b9050919050565b7f43524f574e4e46543a204e6f74206f776e6572206f7220617070726f7665642060008201527f6279206f776e6572000000000000000000000000000000000000000000000000602082015250565b60006130a76028836125e0565b91506130b28261304b565b604082019050919050565b600060208201905081810360008301526130d68161309a565b9050919050565b7f455243373231456e756d657261626c653a20676c6f62616c20696e646578206f60008201527f7574206f6620626f756e64730000000000000000000000000000000000000000602082015250565b6000613139602c836125e0565b9150613144826130dd565b604082019050919050565b600060208201905081810360008301526131688161312c565b9050919050565b7f4e487b7100000000000000000000000000000000000000000000000000000000600052603260045260246000fd5b7f4552433732313a20696e76616c696420746f6b656e2049440000000000000000600082015250565b60006131d46018836125e0565b91506131df8261319e565b602082019050919050565b60006020820190508181036000830152613203816131c7565b9050919050565b7f4552433732313a2061646472657373207a65726f206973206e6f74206120766160008201527f6c6964206f776e65720000000000000000000000000000000000000000000000602082015250565b60006132666029836125e0565b91506132718261320a565b604082019050919050565b6000602082019050818103600083015261329581613259565b9050919050565b60008190508160005260206000209050919050565b60006020601f8301049050919050565b600082821b905092915050565b6000600883026132fe7fffffffffffffffffffffffffffffffffffffffffffffffffffffffffffffffff826132c1565b61330886836132c1565b95508019841693508086168417925050509392505050565b6000819050919050565b600061334561334061333b84612687565b613320565b612687565b9050919050565b6000819050919050565b61335f8361332a565b61337361336b8261334c565b8484546132ce565b825550505050565b600090565b61338861337b565b613393818484613356565b505050565b5b818110156133b7576133ac600082613380565b600181019050613399565b5050565b601f8211156133fc576133cd8161329c565b6133d6846132b1565b810160208510156133e5578190505b6133f96133f1856132b1565b830182613398565b50505b505050565b600082821c905092915050565b600061341f60001984600802613401565b1980831691505092915050565b6000613438838361340e565b9150826002028217905092915050565b613451826125d5565b67ffffffffffffffff81111561346a57613469612866565b5b6134748254612d66565b61347f8282856133bb565b600060209050601f8311600181146134b257600084156134a0578287015190505b6134aa858261342c565b865550613512565b601f1984166134c08661329c565b60005b828110156134e8578489015182556001820191506020850194506020810190506134c3565b868310156135055784890151613501601f89168261340e565b8355505b6001600288020188555050505b505050505050565b600082905092915050565b61352f838361351a565b67ffffffffffffffff81111561354857613547612866565b5b6135528254612d66565b61355d8282856133bb565b6000601f83116001811461358c576000841561357a578287013590505b613584858261342c565b8655506135ec565b601f19841661359a8661329c565b60005b828110156135c25784890135825560018201915060208501945060208101905061359d565b868310156135df57848901356135db601f89168261340e565b8355505b6001600288020188555050505b50505050505050565b600081905092915050565b6000815461360d81612d66565b61361781866135f5565b9450600182166000811461363257600181146136475761367a565b60ff198316865281151582028601935061367a565b6136508561329c565b60005b8381101561367257815481890152600182019150602081019050613653565b838801955050505b50505092915050565b600061368e826125d5565b61369881856135f5565b93506136a88185602086016125f1565b80840191505092915050565b60006136c08286613600565b91506136cc8285613683565b91506136d88284613600565b9150819050949350505050565b7f4e487b7100000000000000000000000000000000000000000000000000000000600052601160045260246000fd5b600061371f82612687565b91507fffffffffffffffffffffffffffffffffffffffffffffffffffffffffffffffff8203613751576137506136e5565b5b600182019050919050565b7f4f776e61626c653a206e6577206f776e657220697320746865207a65726f206160008201527f6464726573730000000000000000000000000000000000000000000000000000602082015250565b60006137b86026836125e0565b91506137c38261375c565b604082019050919050565b600060208201905081810360008301526137e7816137ab565b9050919050565b7f4552433732313a207472616e736665722066726f6d20696e636f72726563742060008201527f6f776e6572000000000000000000000000000000000000000000000000000000602082015250565b600061384a6025836125e0565b9150613855826137ee565b604082019050919050565b600060208201905081810360008301526138798161383d565b9050919050565b7f4552433732313a207472616e7366657220746f20746865207a65726f2061646460008201527f7265737300000000000000000000000000000000000000000000000000000000602082015250565b60006138dc6024836125e0565b91506138e782613880565b604082019050919050565b6000602082019050818103600083015261390b816138cf565b9050919050565b7f4f776e61626c653a2063616c6c6572206973206e6f7420746865206f776e6572600082015250565b60006139486020836125e0565b915061395382613912565b602082019050919050565b600060208201905081810360008301526139778161393b565b9050919050565b7f4552433732313a20617070726f766520746f2063616c6c657200000000000000600082015250565b60006139b46019836125e0565b91506139bf8261397e565b602082019050919050565b600060208201905081810360008301526139e3816139a7565b9050919050565b7f4552433732313a207472616e7366657220746f206e6f6e20455243373231526560008201527f63656976657220696d706c656d656e7465720000000000000000000000000000602082015250565b6000613a466032836125e0565b9150613a51826139ea565b604082019050919050565b60006020820190508181036000830152613a7581613a39565b9050919050565b7f4e487b7100000000000000000000000000000000000000000000000000000000600052601260045260246000fd5b7f455243373231456e756d657261626c653a20636f6e736563757469766520747260008201527f616e7366657273206e6f7420737570706f727465640000000000000000000000602082015250565b6000613b076035836125e0565b9150613b1282613aab565b604082019050919050565b60006020820190508181036000830152613b3681613afa565b9050919050565b600081519050919050565b600082825260208201905092915050565b6000613b6482613b3d565b613b6e8185613b48565b9350613b7e8185602086016125f1565b613b878161261b565b840191505092915050565b6000608082019050613ba7600083018761271c565b613bb4602083018661271c565b613bc160408301856127b2565b8181036060830152613bd38184613b59565b905095945050505050565b600081519050613bed81612546565b92915050565b600060208284031215613c0957613c08612510565b5b6000613c1784828501613bde565b91505092915050565b6000613c2b82612687565b9150613c3683612687565b9250828203905081811115613c4e57613c4d6136e5565b5b92915050565b7f4e487b7100000000000000000000000000000000000000000000000000000000600052603160045260246000fd5b7f4552433732313a206d696e7420746f20746865207a65726f2061646472657373600082015250565b6000613cb96020836125e0565b9150613cc482613c83565b602082019050919050565b60006020820190508181036000830152613ce881613cac565b9050919050565b7f4552433732313a20746f6b656e20616c7265616479206d696e74656400000000600082015250565b6000613d25601c836125e0565b9150613d3082613cef565b602082019050919050565b60006020820190508181036000830152613d5481613d18565b905091905056fea2646970667358221220a0c76616934101b182918df69d9c1c5457d4dd48adccf6043ddd2a2883981f2464736f6c63430008120033",
  "linkReferences": {},
  "deployedLinkReferences": {}
}